:020000040800F2
:10000000D8140020F1890008290200082B020008FA
:100010002F02000833020008370200080000000029
:100020000000000000000000000000003B0200088B
:100030003D020008000000003F02000841020008E5
:100040000B8A00080B8A00080B8A00080B8A00083C
:100050000B8A00080B8A00080B8A00080B8A00082C
:100060000B8A00080B8A00080B8A00080B8A00081C
:100070000B8A00080B8A00080B8A00080B8A00080C
:100080000B8A00080B8A00080B8A00080B8A0008FC
:100090000B8A00080B8A00080B8A00088F5F000893
:1000A0000B8A00080B8A00080B8A00080B8A0008DC
:1000B0000B8A000871500008435300080B8A00089F
:1000C0000B8A00080B8A00080B8A00080B8A0008BC
:1000D0000B8A00082F4800080B8A00080B8A0008CA
:1000E000EB1900080B8A00080B8A000800F002F8E0
:1000F00000F03AF80AA090E8000C82448344AAF188
:100100000107DA4501D100F02FF8AFF2090EBAE885
:100110000F0013F0010F18BFFB1A43F0010318473B
:100120007CAF00009CAF0000103A24BF78C878C1B3
:10013000FAD8520724BF30C830C144BF04680C60ED
:10014000704700000023002400250026103A28BF35
:1001500078C1FBD8520728BF30C148BF0B60704739
:100160001FB51FBD10B510BD08F0C2FC1146FFF74A
:10017000F7FF00F00FF808F0E0FC03B4FFF7F2FF20
:1001800003BC08F0E1FC000030BF72B662B680F339
:1001900008887047012006F054FA06F0C3FA04F00C
:1001A0000BFB04F033FE05F08BF905F0A7FE2021D0
:1001B000194808F05FFC012017490870002080F3FF
:1001C000108800BF154890F8400000F0100008B1FA
:1001D0000120487000BF04F0ACFB00F0BBF904F054
:1001E0004EFE00F026F901F086FB03F0DFF802F086
:1001F00075FB05F016F902F049FF00F0BAF900208E
:100200000549087006490870064908700249887057
:10021000C87003F0B1FADEE74C000020340500207E
:100220003100002032000020704700BFFEE700BF11
:10023000FEE700BFFEE700BFFEE77047704770476C
:10024000704700000CB50020019000906C480068D9
:1002500040F480306A49086000BF6948006800F4D3
:10026000003000900198401C0190009818B9019846
:10027000B0F5A06FF1D16248006800F4003010B111
:100280000120009001E0002000900098012843D157
:100290005C48006840F010005A4908600846006851
:1002A00020F0030008600846006840F00200086083
:1002B00053484068524948600846406848600846CC
:1002C000406840F4806048600846406820F47C1034
:1002D00048600846406840F4E810486008460068F6
:1002E00040F08070086000BF4548006800F0007072
:1002F0000028F9D04248406820F003004049486097
:100300000846406840F00200486000BF3C48406832
:1003100000F00C000828F9D10CBD10B5FFF792FFD2
:1003200010BD10B53648006840F00100344908603F
:10033000084640683449084031494860084600682A
:10034000324908402E4908600846006820F48020A1
:1003500008600846406820F4FE0048604FF41F0023
:100360008860FFF7DAFF4FF000602949086010BD90
:1003700010B5002100200022214B5B6803F00C0126
:1003800021B1042906D0082928D107E0214B224CAD
:10039000236027E01F4B204C236023E0184B5B6851
:1003A00003F47010164B5B6803F48032022303EBF6
:1003B000904022B9194B4343174C23600DE0104B7A
:1003C0005B6803F4003323B1144B4343124C2360A6
:1003D00003E0104B4343104C236003E00D4B0E4CE5
:1003E000236000BF00BF064B5B68C3F303130C4CD4
:1003F000E15C094B1B68CB40074C236010BD00003B
:1004000000100240002002400000FFF8FFFFF6FE4F
:1004100008ED00E000127A000000002000093D0015
:100420000400002010B500220821144808F05AF9F1
:1004300010BD10B508221149104608F029F9FFF740
:10044000F1FF10BD10B50446022C05D10122082190
:100450000A4808F047F901E0FFF7E4FF10BD10B5C6
:10046000044607484078022800D110BD03F0F8F98F
:100470002046FFF7E7FF00BFF7E70000000C014050
:100480004C00002070B50446012000F05FF82046C3
:1004900008F061F80546002000F058F8284670BDC5
:1004A00070B504460D46012000F050F8294620465C
:1004B00008F06EF8002000F049F870BD2DE9F04119
:1004C00007460C461646002511E0680008B9E811F9
:1004D00008B1012000E00020054620782844C5B27C
:1004E00014F8011B38467F1CFFF7DAFF761E002E3A
:1004F000EBD129463846FFF7D3FFBDE8F0812DE95F
:10050000F04106460F469046002512E038467F1C13
:10051000FFF7B8FF0446680008B9E81108B10120E8
:1005200000E0002005462819C5B206F8014BA8F1E5
:100530000108B8F1000FE9D13846FFF7A3FFA84240
:1005400002D10120BDE8F0810020FBE780F3108894
:100550007047000010B54421F94808F08BFAF849BB
:100560008879283104F0CEFA10B9072003F092F907
:1005700010BD10B5F349F2481C3005F04FFF10BD17
:1005800070B505460E4600240AE056F8241055F8CA
:1005900024000AF039F901D0002070BD601CC4B2FB
:1005A000032CF2DB0120F8E701B5AEB000202C905F
:1005B0002890219020901F901E901C9019901890C8
:1005C0004021E14808F056FADF49491CDC4802683E
:1005D0000A6042684A600089088115E39DF870103E
:1005E0002E98405C1B901B98412802DB1B985A28D0
:1005F00002DD01202FB000BD9DF87000401CC0B28C
:100600001C901AAA1CA92E9801F0DEFF08B902203E
:10061000F0E71A980AF048F9C0B2199019980AF050
:100620007BF90B901A990AF0BCFAC8490C900AF0B1
:10063000BBF90D9009F08CFF0022C54BCDE90E01EE
:1006400009F062F9CDE9100109F0DEFB80B21890E3
:100650001B98472802D04D286FD1BEE119982B284E
:100660006CD024DC12286AD010DC032868D006DCA9
:1006700000286FD001286ED002286DD1ADE004288B
:1006800040D00A2832D01128F7D1F6E01C282ED00D
:1006900006DC132870D014286FD01528EDD138E16E
:1006A0001E2825D0262869D02828E6D13EE13B28FF
:1006B0006FD00ADCA0F131000A284DD2DFE800F04B
:1006C000EE4C4C4C23EDECEBEAE95B286FD006DCFA
:1006D0003D286DD050286CD05A28CED1EDE05C2852
:1006E00007D05D2870D05E28C7D104E100BF00BFED
:1006F00000BF189828B92C9808B118207AE7012073
:100700002C9000BF00BF00201D9019981E282ED0ED
:1007100006DC042809D00A280BD01C2859D110E087
:1007200035283BD05C2854D13CE001208649087034
:100730004FE00220844908704BE0C4E1F9E09DE0FD
:100740004CE0189810B10A280BD106E003207E492E
:10075000087008E03FE03FE025E104207A49087096
:1007600001E0142046E700BF0020189031E01898FF
:1007700028B10A280BD106E081E0C9E02FE005206E
:100780007149087006E006206F49087002E01420E5
:1007900030E7F9E000BF002018901AE007206A490E
:1007A000087016E0189828B10A280BD106E085E0F9
:1007B000F2E01BE008206449087006E00920624965
:1007C000087002E0142015E794E000BF00201890A4
:1007D00000BF00BFE9E000BF00BF00BF00BF2C9812
:1007E00008B1182006E702202C9000BF01201D90C0
:1007F0001998032817D005DC48B101280BD002282E
:1008000039D10CE0262812D0502834D12FE0002016
:100810004D4948702FE001204B4948702BE00220E1
:100820004949487027E003204749487023E0189859
:10083000142806D01E2808D028280AD0322810D123
:100840000BE00420404948700DE005203E49487007
:1008500009E006203C49487005E007203A49487005
:1008600001E01420C6E600BF0020189003E0082035
:100870003549487000BF00BF97E000BF00BF0220AD
:100880001D90199811280AD012280CD0132812D1C3
:100890000DE078E076E074E072E070E04AE000217C
:1008A0002948417107E001212748417103E00221F5
:1008B0002548417100BF00BF77E000BF189860B9BC
:1008C00003201D9019985A2803D100211E48017158
:1008D0000FE001211C4801710BE004201D901898C5
:1008E0000A2802D119985A2801D1142082E6002042
:1008F00018905AE000BF05201D9019985D2803D17B
:1009000001211148817002E000210F4881704CE004
:1009100000BF06201D901998142803D101210A4810
:10092000C17002E000210848C1703EE007201D9020
:100930003BE000BF08201D902C9858B1182059E6C4
:100940006C00002050000020B00000200000C842D1
:100950000000E03F03202C901998312803D100219A
:10096000FE48817108E018980A2803D10121FB484C
:10097000817101E014203DE60020189015E000BFD1
:1009800000BF00BF00BF00BF09201D901998363876
:10099000C1B2F248C17108E00A201D90189808B150
:1009A000142027E601E0142024E600BF1898002850
:1009B00001DD17201EE601211D9801FA00F01F99A4
:1009C000084008B1152015E601211D9801FA00F034
:1009D0001F99084380B21F9015E11898002801DD87
:1009E000172007E6199804282BD007DC78B10128D6
:1009F0000ED002280DD0032850D123E0052822D0A4
:100A0000082838D0092837D01E2847D102E000BF77
:100A100000BF00BF0B201D90199830B1012808D0ED
:100A2000022807D01E280AD105E00121CB48017217
:100A300005E004E000BF0221C848017200BF00BF0A
:100A40002EE000BF00BF0C201D901998032804D091
:100A5000042806D005280CD107E00121BF48817287
:100A600007E00221BD48817203E00021BB4881728A
:100A700000BF00BF14E000BF0D201D90199808288A
:100A800002D0092808D103E00221B448417203E0F2
:100A90000021B248417200BF00BF01E01420A9E567
:100AA00000BF01211D9801FA00F01F99084008B10C
:100AB00015209FE501211D9801FA00F01F990843B8
:100AC00080B21F909FE01B984638152872D2DFE84D
:100AD00000F00B7171111B252F7135713D71434968
:100AE0004F717171525C660000201D909B491A98ED
:100AF000C86061E001201D9098481A990161209812
:100B000040F00100209057E002201D9093481A9970
:100B10004161209840F0020020904DE003201D909C
:100B20008E481A998161209840F00400209043E09B
:100B300004201D908949199808773DE005201D90F3
:100B40001A9809F095FE8549086235E006201D9047
:100B500082481A9941622FE007201D907F481A9918
:100B6000816229E008201D907C481A99C16223E027
:100B700009201D9020E00A201D9078481A994163B1
:100B8000219840F00100219016E00B201D90734841
:100B90001A998163219840F0020021900CE00C200A
:100BA0001D906E481A99C163219840F0040021906D
:100BB00002E0FFE714201DE500BF01211D9801FAA6
:100BC00000F01E99084008B1192013E501211D9875
:100BD00001FA00F040F26131084058B11A9809F06A
:100BE000B7FC00221346CDE9100109F065F901D2E6
:100BF0000420FFE401211D9801FA00F01E9908432A
:100C000080B21E9000BF00BF9DF870102E98405C0F
:100C100000287FF4E3AC219818B12C9808B9022081
:100C20002C901E9800F0200030B14C48006A4C49CE
:100C3000884201DD1B20DDE44848807801280FD17F
:100C40002C9802282ED145484078082802D14348E4
:100C5000407810B31E9800F00100F0B91620C9E4E6
:100C600040484078C8B91E9800F00100B0B13B4838
:100C7000C078012816D13948C0680D9009F068FC89
:100C80004FF06632384BCDE90E0109F051F9CDE94C
:100C9000100108F007FE3149C86003E031480069DF
:100CA0002E49C8601E9800F4807018B92D48C1689C
:100CB0002A48C16229480078012809D11E9800F00D
:100CC000400008B91C2095E41E9820F040001E90BA
:100CD0002248407910B101280ED106E000202B9067
:100CE00001202A90022029900DE002202B90002064
:100CF0002A900120299006E001202B9002202A90C2
:100D00000020299000BF00BF1448C078012832D1CC
:100D1000002017902CE00121179801FA00F021998A
:100D20000840C0B10D483430179950F821000D909B
:100D300009F00EFC4FF066320B4BCDE90E0109F0C5
:100D4000F7F8CDE9100108F0ADFD01460348343055
:100D5000179A40F822101798401C07E0B0000020B6
:100D60007F9698006C00002066663940C0B21790EC
:100D700017980328CFDB2C98032809D1F7488079EE
:100D8000012805D1219880F0040008B1252031E424
:100D9000F34A283207CA25AB07C31F9800F4007036
:100DA000A0B1EE48C079062801DD1D2022E4EC4800
:100DB0008179EA48C079814208D0E848C07925A9FC
:100DC000119003F09FFE08B9072013E4E348007870
:100DD000022802D008287AD18BE0219808B91A207D
:100DE00008E41E9800F0500008B91C2002E4DB481B
:100DF000406A119009F058FDC0B228902898062842
:100E000001DD1D2004E4D548007F14280BD0D34811
:100E1000007F022805D11E9800F0800018B1142030
:100E20006CE414206AE41E9820F050001E9028986C
:100E3000002804DD2898401EC0B2289002E0C74870
:100E4000C079289022A9289803F05CFE08B90720F1
:100E500054E40020179048E00121179801FA00F0AF
:100E60002199084090B3BD48007F142830D1BC4878
:100E70003430179950F821001090B9481C3050F8C0
:100E800021000F90109909F097FE1190B34834306B
:100E9000179950F8210001461090119809F08CFE26
:100EA00022AA179942F821001798022819D1AC48B4
:100EB000006C22A91190179851F8200010901199F8
:100EC00009F07AFE22AA179942F8210009E065E0AC
:100ED000A2483430179950F8211022AA179842F8E6
:100EE00020101798401CC0B2179017980328B3DB46
:100EF000F9E0219808B91A2034E40020179049E05D
:100F00000121179801FA00F021990840A0B325A902
:100F1000179851F82000109091481C30179950F8FC
:100F200021000F90109909F047FE11908B48343042
:100F3000179950F8210001461090119809F03CFED5
:100F4000014686483430179A40F822101798022834
:100F50001CD18348006C119080483430179950F8A8
:100F600021001090119909F027FE01467B4834308A
:100F7000179A40F8221009E0FFE7794834301799B2
:100F800050F821207548343040F821201798401C33
:100F9000C0B2179017980328B2DBA4E02C9803285E
:100FA0006FD02198F0B30020179067E001211798C7
:100FB00001FA00F02199084048B969481C30179996
:100FC00050F821206548343040F8212052E0634831
:100FD000007807284ED061480079B0BB60483430B3
:100FE000179950F8210025A91090179851F8200062
:100FF0000F90109909F0D8FA119058483430179989
:1010000050F8210001461090119809F0CDFA0146E0
:1010100052483430179A40F822101798022829D1E4
:101020004F4800E02DE0006C11904C483430179987
:1010300050F821001090119909F0B6FA014647487E
:101040003430179A40F8221014E0FFE744481C306F
:10105000179950F8210011904048343050F8210081
:101060001090119909F0A0FA01463C483430179AC3
:1010700040F822101798401CC0B217901798032808
:1010800094DB36480078C01E07282AD2DFE800F03B
:10109000041C101D1F291E00219808B900202C9047
:1010A00022A9062003F02EFD08B907201EE418E04F
:1010B000219808B900202C9022A9072003F022FDD6
:1010C00008B9072012E40CE000BF0AE009E0234859
:1010D000407828B121484078012801D01E2005E43D
:1010E00000BF00BF00BF00BF1C484078082807D1E0
:1010F000219800280ED02C980128FBD01F201EE438
:101100002C98022806D11548407820B9219800284B
:10111000F8D12C90F0E11148C0680F9009F018FA4E
:1011200000221346CDE9100108F002FE01D116207D
:1011300005E40A484078082809D2DFE800F00804EE
:10114000090AFEFDFCFB219808B900202C90D2E191
:1011500000BF219830B91A200DE40000B000002033
:101160006C00002001212B9801FA00F001222A993D
:101170008A4010432199084008B9202011E4FE4814
:101180002B9950F821001190FC4850F82100109044
:10119000119909F011FD1690F7482A9950F821008D
:1011A0001190F64850F821001090119909F004FDB3
:1011B00015901E9800F08000F0B31E9820F080007B
:1011C0001E90EE49EC48FFF7DBF908B1212008E456
:1011D000EA483438C078012813D1E8483438806AA6
:1011E0000D9009F0B5F94FF06632E54BCDE90E01EF
:1011F00008F09EFECDE9100108F054FBDF493439B8
:1012000088621599084609F0CFFB0B9009F0A0F908
:10121000CDE90E011699084609F0C6FB079009F0C2
:1012200097F9CDE90A01D5483438806A039009F06E
:101230008FF9CDE9060100E09FE0D0483438806A9C
:10124000019009F085F90022CE4BCDE9020108F0AA
:101250006FFECDE90401DDE9062308F069FECDE962
:101260000801DDE90A2309F089F8CDE90C01DDE97F
:101270000E2309F083F8CDE9100108F013FB149058
:101280000021149809F05CFB01D2222007E4DDE97B
:10129000151001F03EFA0B9009F05AF9CDE90E0154
:1012A000149809F055F9CDE90A0108F0D5FA81F052
:1012B0000041CDE90C01DDE90E2308F0E1FBCDE9A9
:1012C000100108F0EFFA1490AC4834384078032845
:1012D00003D1149880F000401490A8483438806AF4
:1012E0000021119009F02CFB0BD2149880F00040E3
:1012F0001490A2483438806A80F000419F48343806
:101300008162DDE9141009F04FFB0C90169909F089
:1013100048FC0D9009F01CF900229B4BCDE90E0111
:1013200008F006FECDE9100108F0BCFA014693482A
:10133000243803E0D3E0D1E0CFE0CDE02B9A40F8B1
:1013400022101499169809F02FFB0C90159909F0AA
:101350002BF90D9009F0FCF800228B4BCDE90E0122
:1013600008F0E6FDCDE9100108F09CFA014683483B
:1013700024382A9A40F82210ADE001212B9801FA76
:1013800000F001222A998A4010432099084008B9A8
:10139000232010E41E9820F00E001E907748343869
:1013A000C078012829D10020179023E00121179847
:1013B00001FA00F020990840C0B17048243817990C
:1013C00050F821000D9009F0C3F84FF066326C4BD5
:1013D000CDE90E0108F0ACFDCDE9100108F062FA8C
:1013E000014666482438179A40F822101798401C86
:1013F000C0B2179017980328D8DB604924392B987E
:1014000051F8200001461190169809F0D5FB16906E
:101410005A4824382A9950F821000146119015980D
:1014200009F0CAFB1590DDE9151001F072F913906F
:10143000524824382A9950F8210011904F482438F6
:101440002B9950F821001090119901F062F94B4945
:10145000343988620846806A01460E90139809F074
:10146000ABFB0F9009F074F821F00041CDE91001B9
:1014700008F018FA1290129809F06AF8434A444B9F
:10148000CDE9100108F052FE25D2129809F060F85B
:1014900000223D4BCDE9100108F048FE01D2212089
:1014A00011E436483438806A0B9009F051F8394A13
:1014B000394BCDE90C0108F03BFDCDE91001129844
:1014C00009F046F8CDE90E01DDE9102308F02EFE03
:1014D00001D221205BE40EE000BF00BF00BF2198D5
:1014E00008B91A2053E425492348FFF749F808B101
:1014F00021204CE400BF00BF40F221311E988843F8
:101500001E902C9818B11E9820F4E0501E901E9842
:1015100008B124203BE419483438006A16491C39C4
:101520008861164834388078487014483438C06868
:10153000086112483438C06A11900846C06810909B
:10154000119909F061F914D00B481C38407A50B158
:101550000A483438C06A119007481C38407A109005
:10156000119903F00EFD05483438C06A02491C3950
:10157000C8600248343811E088000020E4000020F0
:1015800066663940000010400000E03F7B14AE4723
:10159000E17A743FFCA9F1D24D62503F90F83000DF
:1015A000CC4908750846417ACB48807A81420CD0F4
:1015B000C848C0681190C848807A1090119903F00B
:1015C000E0FCC548807AC3494872C248017AC248E3
:1015D000407A814208D0C048407A1190FEF73FFF20
:1015E000BD48407ABB490872BB480078012804D145
:1015F000B948406A119000F0BDFEB7484079B5493E
:101600000871B548C07888702C9803280DD1B2486D
:101610008079487108464079012803D1AE48C06BF3
:10162000086402E00020AB490864AA488179AA480E
:10163000C079814208D0A848C079A6498871084677
:1016400025A90EC928300EC0A3480079A149C87049
:10165000A1480078801E082843D2DFE800F0041378
:1016600027142D42333C22A9289803F093F9994876
:1016700081792898814204D1964822A90EC9283040
:101680000EC02EE000BF2C9828B10022934992484A
:10169000343000F055FC0022904922A800F050FCA4
:1016A0008C4822A90EC91C300EC01AE089491C3191
:1016B000062003F06FF914E086491C31072003F07F
:1016C00069F90EE083498448D0E90D23C06BC1E974
:1016D0000D23C86305E07F48002141638163C16336
:1016E00000BF00BF7C4840787A49087008460078FF
:1016F000082876D02C98022873D10846007808284C
:101700000BD2DFE800F0040B18334E5E6F7F00222F
:1017100072497148343000F013FC83E06D48407822
:1017200011906C480069109001466B483430119A52
:1017300000F006FC76E00123DDE92A212998CDE9B5
:101740000403CDE902126348407862490969CDE992
:1017500000106148806A03465F4A103202F124019A
:1017600011905C481C3000F014FC5BE00023DDE9C4
:101770002A212998CDE90403CDE902125548407881
:1017800054490969CDE900105348806A0346524A1A
:10179000103202F1240111904E481C3000F0F9FB88
:1017A00040E0002000904B48407811904948006983
:1017B00000231090014648483430119A00F035FE5D
:1017C00030E0012000904348407811904148006982
:1017D00000231090014640483430119A00F025FE55
:1017E00020E028E0002000903A48407811903948E5
:1017F000006901231090014637483430119A00F0F7
:1018000014FE0FE0012000903248407811903148DA
:1018100000690123109001462F483430119A00F0DE
:1018200004FE00BF00BF2B492B48D0E90D23C06B3D
:10183000C1E9072348622848007A2649C87108464A
:10184000C079A8B302F00CF82248C079012818D159
:1018500023484078022838D001201190119880F355
:10186000108800BF1F48007840F008001D4908702C
:1018700000201190119880F3108800BF01F0E6FD60
:1018800023E001201349087000200871C8704870D7
:1018900088714872087212484078022812D00846AF
:1018A000807925A9119003F02DF910B9072009E4DA
:1018B0000EE0084825A90EC928300EC003F0D4FA5E
:1018C000FEF7B0FD072002F06CF800200149C87156
:1018D000002004E46C000020B0000020000080BF65
:1018E0004C0000203100002010B5002211462820B5
:1018F00006F0BDFE10BD10B54FF40062FE49042095
:1019000006F0DBFE4FF48052FB49042006F0D5FEC2
:101910004FF40042F849042006F0CFFE0122D10224
:10192000F54806F0DFFE01221103F34806F0DAFE67
:101930000122D103F04806F0D5FEF04890F84000AF
:1019400000F00800D0B10C234FF400620B210020FE
:1019500006F060FE0C234FF480521946002006F07A
:1019600059FE0C234FF400420F21002006F052FED6
:1019700000221146282006F069FE01E0FFF7B4FFBF
:1019800010BD2DE9F04100264FF40061DA4806F061
:10199000B8FE47004FF48051D74806F0B2FE47EA40
:1019A00080074FF40041D44806F0ABFE47EAC00080
:1019B00000F00E05D14890F8400000F0400008B952
:1019C00085F00E0575B100240AE0204603F03FFAC9
:1019D000284018B10120A0403043C6B2601CC4B2F8
:1019E000032CF2DB3046BDE8F08110B54FF418400F
:1019F00004F0F5FFC2484078012813D0C1480078B0
:101A000080B9FFF7BEFF68B100F08EFD012000F045
:101A100089FABC48007840F00300BA4908700020F9
:101A200000F080FA10BD2DE9F04F91B00746032079
:101A300010904FF0000800200890B148007810B1D5
:101A400011B0BDE8F08F002446E0204603F0EBF92A
:101A50000FA908550CB1012C0BD1002003F0E3F9BC
:101A60008346012003F0DFF94BEA000B0FA800F8D2
:101A700004B00120A040384060B3A049243151F89F
:101A8000240008F065FD00229F4BCDE9000108F01D
:101A90004FFACDE90401404608F05AFDCDE90201B4
:101AA000DDE9042308F042FB03D2404608F050FD74
:101AB0000BE09249243151F8240008F049FD00223E
:101AC000914BCDE9040108F033FACDE9060107F0A6
:101AD000E9FE8046601CC4B2032CB6DB01258748B2
:101AE000806C0B9000BF8649091D0CA804F096FC81
:101AF000002600200990002446E00120A040384044
:101B000000283FD00998401CC0B209905CB97C48BD
:101B1000001D04F041FC82467948C0F804A0CAF1D7
:101B2000000181600FE0012C0AD17548001D04F00E
:101B30003BFC82467248C0F804A0C0F808A002E04E
:101B400000216F48C1606D4890F841000121A1401B
:101B5000084050B12DB188F000400CA941F8240094
:101B60000DE00CA840F8248009E01DB10CA840F855
:101B7000248004E088F000400CA941F824000FA85C
:101B8000005D0643601CC4B2032CB6DB099808F064
:101B90007FF9CDE9000107F05FFECDE904010B9864
:101BA00008F0D6FCCDE90201DDE9042308F0C0F914
:101BB000CDE9060107F076FE0B905148467701F01B
:101BC00065FA00220CA80B9900F0ECFE03F0B6FCBD
:101BD00003F0F8F900BFFDB1FFF7D3FE0A9000242F
:101BE00016E00FA8005D304080B10120A0400A99A6
:101BF000084058B1022C03D19DF83E00864305E011
:101C00009DF83C009DF83D1008438643601CC4B21B
:101C1000032CE6DB3A48467703F090FC3B4800781B
:101C200000F0340008B33948007800F0300050B9B3
:101C30001DB9FFF7A6FE384028B94DB133480078EA
:101C400000F0040020B100F06FFC01F0FFFBF7E6AC
:101C5000012000F067F92D48007820F004002B499E
:101C60000870002000F05EF903E006F01C00002878
:101C7000B1D100BF03F0D5FB00F030FE1F49B1F831
:101C80004C0004F08CFD85F0010595B11B49086DF1
:101C900008F05EFC00221E4BCDE9040108F048F973
:101CA000CDE9060107F0FEFD80461448406C0B901C
:101CB00004E01248D0F85080806C0B901098411EC0
:101CC000C9B2109100283FF70EAF0024D2E00120E6
:101CD000A040384000287DD0084890F841000121FC
:101CE000A1400840E8B3054A116D243252F824009F
:101CF00008F05AFC07900DE0000801403405002070
:101D00004C000020320000200000F8BF310000200D
:101D100000001440854850F82410079808F044FE4D
:101D20008346002108F00CFF1CD2804A116D24323A
:101D300052F8240008F038FC03907C4850F8241036
:101D4000039808F031FE834608F002FC0022784B2D
:101D5000CDE9040107F0D8FDCDE9060108F024F82B
:101D60001BE01CE0714A116D243252F8240008F087
:101D70001BFC03906D4850F82410039808F014FEE3
:101D8000834608F0E5FB0022694BCDE9040108F029
:101D9000F5FACDE9060108F007F8814642E063480C
:101DA000006D80F0004B614850F82410584608F050
:101DB000FBFD0021079008F0C3FE1AD25B48006DBE
:101DC00080F000400390594850F82410039808F020
:101DD000EBFD00E04CE0834608F0BAFB0022544BD8
:101DE000CDE9040107F090FDCDE9060107F0DCFF25
:101DF00017E04E48006D80F0004003904B4850F8CB
:101E00002410039808F0D0FD834608F0A1FB0022BF
:101E1000474BCDE9040108F0B1FACDE9060107F01E
:101E2000C3FF81467CB9434804F0B6FA089008988D
:101E300048444049091F48600898A9EB00013D4803
:101E4000001F816014E0012C0FD13A4804F0ACFA75
:101E50000890089848443749091F48600898A0EB43
:101E600009013448001F816002E0324840F82490A4
:101E7000601CC4B2032CFFF62AAF01F007F900BFC3
:101E8000DEE570B50546002448E055F82400002141
:101E900008F056FE08D3254A243252F8241055F88B
:101EA000240008F04DFD03D201202249091FC8700B
:101EB0002048001FC07870B31E48001F40780828D3
:101EC00018D1012000F02EF81B48007840F00800DF
:101ED00019490870002000F025F800BF01F0B6FA9B
:101EE0001448001F007800B170BD1248001F4078F0
:101EF0000028F3D100F018FB012000F013F80F4880
:101F0000007840F005000D490870002000F00AF844
:101F100001F09CFAE8E7FFE7601CC4B2032CB4DBD5
:101F200000BFE1E780F3108870470000340500200F
:101F30000000E03F5000002031000020320000206F
:101F400070B504460D461646F74890F8400000F07C
:101F5000200010B12046FFF794FFF4484078022893
:101F600000D170BD00BF01F071FAF048007800B1F7
:101F7000F7E700F00DFD10B101F0F0FB00E000E02C
:101F8000F1E700BF32462946204600F00BFD00BFB6
:101F9000E7E72DE9FF4F9DB0054688461446DDE989
:101FA0002D792C9E54F8261055F8260008F0FCFADE
:101FB0001C9054F8271055F8270008F0F5FA1B90EC
:101FC00054F8260080F000401A9054F8270080F062
:101FD0000040199058F826001C9908F0EDFD189063
:101FE00058F827001B9908F0E7FD179000200F9084
:101FF0001799199808F0D8FC069018991A9808F0C3
:10200000D3FC0590069908F0CFFA079008F0A0FAE3
:10201000CDE90A01DDE9181008F0C6FC0690179911
:102020001A9808F0C1FC0590069908F0C5FD0790C4
:1020300008F08EFACDE90801DDE90A2307F0D2F9AC
:10204000CDE90C0107F02EFC0E902F98C0B10E9830
:1020500008F07EFAB64AB74BCDE90C0108F066F8F5
:1020600026D80E9808F074FAB34AB44BCDE90A01A9
:1020700008F084F9CDE90C0107F014FC0E9017E08C
:102080000E9808F065FAAA4AAD4BCDE90C0107F0AD
:1020900013FF0DD80E9808F05BFAA74AA74BCDE9BD
:1020A0000A0107F031FCCDE90C0107F0FBFB0E90B3
:1020B0004FF08040209908F077FC01909A48C16B5E
:1020C000019808F079FD02909748C16B029808F0DA
:1020D0006BFC039008F03CFACDE9040107F0BCFB6F
:1020E000CDE90801209808F033FACDE904010E98F3
:1020F00008F02EFA0022934BCDE9000107F018FFFB
:10210000CDE90201DDE9042307F012FF21F00041CF
:10211000CDE90601DDE9082307F0B2FCCDE90A01AB
:1021200007F0DCFACDE90C0107F06EFE1FFA80FA29
:10213000BAF1000F7DD02B9838B1504608F0ECFB77
:102140000D902A9908F030FC2A90504608F0E4FBE4
:1021500001460D900E9808F095FA1690504608F03A
:10216000DBFB0D9055F8291058F8290008F024FDE4
:102170000C900D9908F086FA15901699084608F00B
:1021800013FC099008F0E4F900224FF08043CDE9F8
:102190000A0108F001F8CDE90C0107F083FB149067
:1021A000149808F0D5F90022674BCDE9060107F035
:1021B000ABFBCDE90A01169808F0CAF9634A644BF3
:1021C000CDE9060107F0B4FECDE90801DDE90A23F7
:1021D00007F0AEFECDE90C0107F064FB13901498F4
:1021E00008F0B6F90022574BCDE90A0107F0A0FE2E
:1021F000CDE90C0107F056FB14904FF0010BADE058
:102200000F980C2824DA1499199808F0CDFB0D903A
:1022100013991A9808F0C8FB0C900D9908F0C4F9AE
:1022200010901399199808F0BFFB0D9014991A9803
:1022300000E096E008F0B8FB0C900D9908F0BCFCAB
:102240001A90109819900F98401CC0B20F904DE052
:10225000584608F061FB0890169908F0A5FB099014
:1022600008F076F9CDE90A0107F0EAF9CDE90C01A9
:1022700007F018FB1190584608F04EFB089016998D
:1022800008F092FB099008F063F9CDE90A0107F024
:1022900093FACDE90C0107F005FB129054F82700E2
:1022A000129908F081FB0D9054F8260080F0004050
:1022B0000B90119908F078FB0C900D9908F074F9C7
:1022C0001A9054F82700119908F06EFB0D9054F8FD
:1022D000260080F000400B90129908F065FB0C90EE
:1022E0000D9908F069FC199000200F901A991C981C
:1022F00008F05AF945F8260019991B9808F054F986
:1023000045F8270055F82900159908F04DF945F8CA
:1023100029002846DDE92A12FFF712FE034800785B
:10232000C0B121B0BDE8F08F340500204C00002082
:102330008DEDB5A0F7C6A0BE182D4454FB21194061
:10234000F7C6A03E0000E03F000010404BDA7D5C85
:102350005555C53F0BF101001FFA80FBD345FFF631
:102360004FAF4046DDE92A12FFF7EAFD00BF21B07A
:10237000BDE8F08F2DE9FC5F81468D48407802284A
:1023800001D1BDE8FC9F8B49484608F00DFB824611
:1023900008F0DEF8074607F0A1F9054607F034FD1E
:1023A00084B201F05DFA322104FB01F008F09CFADE
:1023B00081490190484608F0F7FA0090019908F029
:1023C000FBFB834608F0C4F8074607F087F905468B
:1023D00007F01AFD1FFA80FA504604F0E0F908E011
:1023E00001F034F87248007800B1CAE7322004F0F6
:1023F000D6F9201EA4F101018CB2F1DC00BFC0E7C8
:1024000010B5FFF771FA0120FFF70DFB0220FFF76F
:102410000AFB01F01BF86648007800B110BDFEF71A
:10242000A8F8FFF768FA00BFF8E72DE9F041054684
:102430000E4617461C46DDF818805D484078022895
:1024400001D1BDE8F08101F00BFA0020584908776E
:10245000204600F0B7FF00F0CBFF68B1012000F08C
:10246000A3F85648007840F0100054490870002046
:1024700000F09AF800F0EAFF4D48007800B1E0E77C
:102480003A4631462846FFF75BFD01204C4908706B
:1024900000F08AF84B48007840F002004949087083
:1024A000002000F081F800BF00F0D0FF4048007825
:1024B00000B1C6E73E4840780028F5D14048007892
:1024C000012816D1B8F1000F06D0394803461B1D6C
:1024D0000ECB10300EC00FE0012000F065F8374839
:1024E000007840F0100035490870002000F05CF8DA
:1024F00002E001202E49087700203149087000F0E1
:10250000A5FF2B48007800B19BE702F08AFF00F09E
:10251000E5F900F0BBFD2649091D284603F07EFFC2
:1025200001F0BDFD00BF8CE710B52648007800F033
:102530001000002837D1012000F036F8214800783B
:1025400040F010001F490870002000F02DF802F044
:102550008BFCFDF767FF1648407800F00C0018B9B7
:102560001348807801281ED11148407804280CD1E6
:10257000012000F019F81148007840F020000F49C0
:102580000870002000F010F80BE0012000F00CF8BB
:102590000A48007840F0080008490870002000F060
:1025A00003F802F036FD10BD80F31088704700007C
:1025B0004C0000200000A04100007A4432000020BE
:1025C00030000020310000202DE9F04F87B0804618
:1025D0008946924699F8000000EB08040020059017
:1025E00000258346049014F8016B06902D2E04D12B
:1025F0000120069014F8016B03E02B2E01D114F892
:10260000016B0020059000258346049025E0A6F18B
:102610003000C6B2092E16DC0BF1010000F0FF0BF2
:10262000BBF1080F0ADC049808B1681E45B2059892
:1026300000EB800006EB400005900CE0049850B9D8
:10264000681C45B207E0FE2E04D1049810B90120A1
:10265000049000E002E014F8016BD8E700BFBBF182
:10266000000F03D1002007B0BDE8F08F059808F0F7
:1026700053F907460021384608F0C6F839D00FE074
:10268000384607F065FF314A314BCDE9000107F0CC
:102690004FFCCDE9020107F005F90746A81C45B239
:1026A00015F1020FECDD002D0EDA384607F050FF71
:1026B000284A294BCDE9000107F03AFCCDE9020197
:1026C00007F0F0F8074614E0002D12DD00BF384691
:1026D00007F03EFF0022214BCDE9000107F028FC66
:1026E000CDE9020107F0DEF80746681E40B2051E7C
:1026F000EDDC069820B187F00040CAF8000001E048
:10270000CAF80070A4EB0800401E89F80000012000
:10271000A9E72DE9F84F044689464946484608F09E
:1027200043F983462146204608F03EF95946009079
:1027300007F03AFF824607F00BFF074607F08CF8D8
:10274000054607F0AFF8BDE8F88F00007B14AE47F0
:10275000E17A843F9A9999999999B93F0000244068
:10276000411CC8B2122800D10020704700B91220C5
:10277000411EC8B270472DE9F047FE480078FFF7C8
:10278000F5FF054605EB450000EBC500FA4901EBF6
:102790008004FA480078854201D1BDE8F0874FF007
:1027A0008040616A08F000F98146A16A08F0FCF8EF
:1027B0008046A16908F0C4F901D2A06908E04FF091
:1027C0008040616A08F0F0F88046A16A08F0ECF8F1
:1027D00060612846FFF7CAFF0546E8480078854251
:1027E00006D1E7480078854235D102F094FE32E008
:1027F0002DE0264605EB450000EBC500DE4901EB68
:1028000080042846FFF7B2FF0546DD480078854280
:1028100001D102F080FED4E9050107F0F5FF16D0E2
:102820004FF08040616A08F0BFF88146A16A08F065
:10283000BBF88046716907F0B7FE07463846A169C4
:1028400008F07EF801D2676101E0A0696061CB48C1
:1028500000788542CDD1C948007800EB400101EBFA
:10286000C000C54901EB8006C4480078FFF778FF37
:1028700005462DE0344605EB450000EBC500BE499A
:1028800001EB80067169606908F05AF815D24FF0C3
:102890008040616A08F088F88146A16A08F084F8EF
:1028A0008046616907F080FE07463846716908F086
:1028B00047F802D27761B1480570D6E9050107F003
:1028C000A3FF01D1AD4805702846FFF749FF054633
:1028D000A84800788542CDD100BF5EE710B51C2125
:1028E000A84806F0C7F80020A5490870A14908705B
:1028F0000120A54908700020A049087010BD00B54E
:102900009C4800789E49097888420FD09C480078FE
:10291000FFF726FF02469A480078984909788842CE
:1029200001D1964802709648027000BF00BD9148E0
:10293000007893490978884201D100207047904877
:10294000007800EB400101EBC0008B4901EB8000F7
:10295000F4E72DE9F0418A480078FFF701FF0446CB
:1029600084480078844202D10020BDE8F08104EB65
:10297000440101EBC401804A02EB8101486907F080
:10298000E7FD074606F068FF054606F08BFFECE71B
:102990007B4800787C490978884201D10120704742
:1029A0000020FCE707B59AB07248007800EB4001C0
:1029B00001EBC000704901EB80000C9000210C98E5
:1029C00001610C9881620C98017070490C98416209
:1029D0006F4800680A901A98006809900A9907F0F1
:1029E000E3FF00210B9008F0ABF816D268480068AE
:1029F00006901A9800680590069907F0D5FF079091
:102A000007F0A6FD0022634BCDE9080106F07CFF2C
:102A1000CDE90A0107F0C8F915E05D4800680690A5
:102A20001A9800680590069907F0BEFF079007F016
:102A30008FFD0022574BCDE9080107F09FFCCDE93F
:102A40000A0107F0B1F91690514840680A901A98A7
:102A5000406809900A9907F0A7FF00210B9008F041
:102A60006FF816D24A48406806901A984068059058
:102A7000069907F099FF079007F06AFD0022454B81
:102A8000CDE9080106F040FFCDE90A0107F08CF915
:102A900015E03F48406806901A98406805900699EE
:102AA00007F082FF079007F053FD0022394BCDE974
:102AB000080107F063FCCDE90A0107F075F91790EA
:102AC000304916980968401A2E4A17995268891A8F
:102AD00008440B90002801DB0B9801E00B98404262
:102AE0000C994860274916980968411A254A179891
:102AF0005268801A081A0B90002801DB0B9901E03C
:102B00000B9841420C98816000201190F7E01198D9
:102B1000002873D01198012870D01D49119851F8E0
:102B200020000A9011991A9850F8210009900A99EA
:102B300007F03AFF00210B9008F002F82CD214495C
:102B4000119851F82000069011991A9850F8210018
:102B50000590069907F028FF079007F0F9FC00227E
:102B60000C4BCDE9080106F0CFFECDE90A0107F0D4
:102B70001BF92BE015000020F000002017000020BA
:102B80001400002008040020160000209976967E8C
:102B9000340500200000E03FF849119851F820006A
:102BA000069011991A9850F821000590069907F09F
:102BB000FBFE079007F0CCFC0022F14BCDE90801A9
:102BC00007F0DCFBCDE90A0107F0EEF816AA11992F
:102BD00042F8210016A9119851F82010E94A52F83C
:102BE0002000081A0B90002801DB0B9901E00B98DC
:102BF00041420C98001D119A40F822100C9802696D
:102C0000001D119950F82100824202D90C980069E8
:102C100004E00C98001D119950F821000C990861EE
:102C20001198B8B9D74916980968401AD54A179922
:102C30005268891A08440A9007F056FECF490B9053
:102C4000119851F8200001460A900B9807F01AFDE0
:102C5000129030E01198012817D1CA4916980968D6
:102C6000401AC84A17995268891A401A0A9007F000
:102C70003BFEC2490B90119851F8200001460A9082
:102C80000B9807F0FFFC129015E016A9119851F867
:102C90002010BC4A52F82000081A0A9007F024FEBF
:102CA000B6490B90119851F8200001460A900B98F4
:102CB00007F0E8FC129013AADDE9111042F8210098
:102CC0000021129807F03CFE07D2119802F0B5F8E7
:102CD0000C99097808430C9908701299084607F076
:102CE00063FE0B900C98806A01460A900B9807F0DF
:102CF0005BFC0C9988621198401CC0B2119011982D
:102D00000328FFF604AF0C98806A079007F020FCB8
:102D1000CDE9080106F0A0FDCDE90A0106F0C2FDEB
:102D20000C9988620C98006908B91DB000BD00219B
:102D30001B9807F005FE02D293481B9009E01C98EF
:102D400038B10C98806A01460B901B9807F02CFE56
:102D50001B901B9807F0FCFB00228C4BCDE90A016D
:102D600007F0AAF802D24FF07E501B900C98806AB0
:102D7000079007F0EDFB02460B46CDE90801002065
:102D8000824906F07DFECDE90A0106F08BFD0F9029
:102D900000200E9011907BE013A9119851F82000AB
:102DA00000210B9007F030FD6ED013A9119851F857
:102DB00020000B900F9907F0F7FD13AA119942F824
:102DC000210013A9119851F82000079007F0C0FBCB
:102DD00002460B46CDE9080100206C4906F050FE82
:102DE00021F00041CDE90A0106F05CFD1090634836
:102DF0000C30119950F821000A90109907F0D4FD79
:102E00000B901B9907F09CFE01D21B9808E05B48D1
:102E10000C30119950F821000B90109907F0C4FD67
:102E20001B9056481830119950F821000A901099BB
:102E300007F0BAFD0B900C98406A01460A900B9877
:102E400007F07EFE02D20C98406A08E04B4818302A
:102E5000119950F821000B90109907F0A5FD0C99DD
:102E6000486213A9119851F820000A9045480C3087
:102E7000119950F8210009900A9907F095FD0B90DF
:102E80000E9907F08EFE0E901198401CC0B2119062
:102E90001198032880DB3E4800783E490978884233
:102EA00005D100210C9841610C98C1619FE00E98FA
:102EB00007F04EFB384A354BDB1ECDE90A0107F01F
:102EC00035F903D200210C98C16190E00E9807F00B
:102ED0003FFB314A314BCDE9080107F027F903D216
:102EE0000E9807F035FB01E02B482C49CDE90A018B
:102EF00006F0D8FC0E900E9807F02AFB0022234B18
:102F0000CDE9040107F048F900221D4BCDE9060187
:102F100007F00EF8CDE9080106F09EFCCDE90A01A4
:102F200006F0C0FC0D900D9807F012FB0022174B25
:102F3000CDE9020107F030F9CDE906010F48806BB9
:102F400001900C98406A0090019907F02DFD0290C5
:102F50000D9907F029FD039007F0FAFACDE9040175
:102F6000DDE9062306F08CFD00221346CDE90801B9
:102F700006F0A2FF14D20020014632E03405002002
:102F80000000E03F080400209976967E0000F03FA4
:102F90001500002014000020E90B21E7FDFFEFBF22
:102FA0000D9807F0D5FA0022574BCDE9040107F040
:102FB000F3F8CDE908015548806B03900C98406AFE
:102FC0000290039907F0F0FC04900D9907F0ECFCD7
:102FD000059007F0BDFACDE90601DDE9082306F00A
:102FE0004FFDCDE90A0106F05DFC0C99C8611B9903
:102FF000084607F0D9FC0C990862454880690A9098
:103000000C98006A09900A9907F09AFC02D20C9871
:10301000006A01E03E4880690B900C98C0690A90F4
:103020000B9907F08DFC02D20C98C0690EE038486D
:1030300080690B900C98006A0A900B9907F080FC4D
:1030400002D20C98006A01E0314880690C998861CD
:103050002F4813A90EC90C300EC00C98006A2C49D9
:1030600088610846DDE91631189AC0E900318260AE
:10307000284800782849087008460078FFF770FB58
:1030800024490870FFF777FB00BF4EE610B5002417
:1030900016E02CB9214803F087F91D4908600DE0BE
:1030A000012C05D11D4803F077F91949486005E066
:1030B0001A4850F82400164941F82400601CC4B294
:1030C000032CE6DB10BD14480078154909788842C6
:1030D00006DB1148007812490978401AC0B27047DF
:1030E0000F4800780C490978401AC0F11200C0B2AC
:1030F000F5E710B502F00FFA0948007809490870A1
:10310000FFF739FB10BD00000000F03F3405002040
:1031100008040020160000201500002050000020A8
:10312000140000201700002010B5044603E014F836
:10313000010B01F047FB20780028F8D110BD10B535
:1031400004462046FFF7F0FF10BDFEB505460E46CB
:10315000174600240BE095FBF6F006FB1050C0B2BA
:103160000DF8040095FBF6F0C5B2601CC4B2BC4279
:10317000F1DB08E0611E1DF801103031C8B201F02A
:1031800021FB601EC4B2002CF4DCFEBD10B5044669
:10319000082202212046FFF7D8FF10BD70B5054672
:1031A0000A2D01DA012404E0642D01DA022400E092
:1031B000032422460A212846FFF7C7FF70BD3EB50B
:1031C000044600251CB9302001F0FCFA3EBD0CE09D
:1031D0000A20B4FBF0F100FB11422846691CCDB275
:1031E0000DF800200A20B4FBF0F4002CF0D108E028
:1031F000691E1DF801103031C8B201F0E3FA681EF3
:10320000C5B2002DF4DC00BFE0E710B50446002C89
:1032100006DA2D2001F0D6FA6042FFF7D0FF02E077
:103220002046FFF7CCFF10BD2DE9F04786B082465F
:103230000D462E460024504607F01AFB8146002119
:10324000504607F07DFB04D22D2001F0BBFA8AF036
:10325000004A2E4606E04F49504607F0A5FB82463D
:10326000B01EC6B2022EF6DA26B14B49504607F020
:103270009BFB8246504607F06BF907460022474BFE
:1032800006F042FBCDE9000106F00CFB824600246B
:10329000504607F0EDFA81462E2002A9485511E06C
:1032A000AC4201D1601CC4B20A20B9FBF0F100FBB2
:1032B000119030302146621CD4B202AA50540A2028
:1032C000B9FBF0F9B9F1000FEAD105E03022204650
:1032D000611CCCB202A90A54AC42F7DBAC4207D164
:1032E000601CC4B230222046611CCCB202A90A5430
:1032F00006E0611E02AA505C01F064FA601EC4B2CE
:10330000002CF6DC06B0BDE8F0872DE9F047044656
:10331000234890F8400000F0010078B1204607F003
:1033200017F907461F4A204B06F002FE054606F035
:10333000B9FA81460421FFF777FF03E00321204615
:10334000FFF772FFBDE8F0872DE9F0470446144807
:1033500090F8400000F0010078B1204607F0F8F83E
:103360000746104A104B06F0E3FD054606F09AFAB0
:1033700081460121FFF758FF03E000212046FFF7B7
:1033800053FFBDE8F08710B5044603212046FFF740
:103390004BFF10BD0000C842000020410000E03F8C
:1033A000340500206568E1575128A43F10B510226C
:1033B0002049042005F081F9012210211D4805F063
:1033C00091F910BD00211C4A11701C4991F8401060
:1033D00001F0800121B91146097881F001011170D5
:1033E00028B11549097881F00101134A117070471D
:1033F00010B510210F4805F084F90F4909784840AD
:1034000010BD10B50E480078012811D1FFF7F0FF6C
:1034100070B100200A4908700A4803461B1D0ECBF4
:1034200010300EC00848007840F04000064908708F
:1034300010BD0000000801401800002034050020E5
:10344000300000204C0000203100002010B500BFEB
:10345000FE480478002C47D00120FD49487004F054
:10346000020018B1012000F073FA1AE004F0040021
:1034700018B1022000F06CFA13E004F0080018B153
:10348000032000F065FA0CE004F0100018B10420ED
:1034900000F05EFA05E004F0200010B1052000F015
:1034A00057FA04F00100A8B1012000F07AFA0120D7
:1034B00000F0EAF9E748007820F01000E5490870CC
:1034C000002000F0E1F900BFE248007800F01000B1
:1034D0000028F9D0012000F0D7F9DC48007800205E
:1034E000DA49087000F0D0F9DA480478002C7DD071
:1034F00004F0100018B10120D549087010BD04F087
:10350000010068B101F01EF8012000F0BDF9D148BA
:10351000007820F00100CF490870002000F0B4F9D5
:1035200004F06800002854D0C948407820B1C84849
:10353000407800F07C00E8B3C5484078082804D102
:1035400001F0E9FF0120C2498870C148407810B9F4
:103550000220BF49887004F0400060B1BC48407848
:10356000082802D14020BA494870B948807840F014
:103570000800B749887004F0080038B1B4484078B2
:1035800000F0200010B91020B149487004F020006C
:1035900080B1062000F005FAAD48807800F0020006
:1035A00008B144F00404AA48807840F00400A84917
:1035B000887000E001E020204870012000F064F9EC
:1035C000A448007820F06800A2490870002000F0AC
:1035D0005BF904F00200002850D004F06800D0BB72
:1035E0009B48407858B19A48407800E071E000F07C
:1035F000500080B39648807800F0020058B3944899
:10360000807800F00400B0B19348407A40B1924A0B
:10361000D168507A01F04CFC4FF47A6003F0BFF8A7
:103620008D48007A38B18C49087AFCF70BFF4FF4CB
:103630007A7003F0B4F8FFF77AF968B184488078BB
:1036400000F0080040B908208149487001F076FF79
:1036500001F0B8FC03E005E000207D49487000203F
:103660007B498870012000F00FF97A48007820F03B
:10367000020078490870002000F006F904F0040008
:1036800038B37348407800F0300090B17048C0788B
:1036900078B96F48807800F0040018B101F0E4FBBD
:1036A000FCF7C0FE6A48807840F0020068498870E4
:1036B00003E00020664988704870012000F0E4F8BB
:1036C0006448007820F0040062490870002000F08F
:1036D000DBF85F48407800F07C0008B101F02EFF75
:1036E0005B48407820280AD15948807800F00200D1
:1036F00028B102F088FC10B9102055494870544890
:10370000807800287FF4A4AE00BFF7E670B50446C9
:10371000FFF79CFE4E48007800B170BD207818B9C4
:10372000002000F0B7F817E02078242806D12046C2
:1037300002F088FC054600F0ADF80DE04448407802
:10374000012803D1092000F0A5F805E02046FCF788
:103750002BFF054600F09EF800BFDEE710B5012004
:1037600000F092F83B48007840F0020039490870B8
:10377000002000F089F810BD70B50026002500F08B
:1037800043F933484078012803D1022000F009F9B9
:1037900011E002F038FC40B12E48007840F02000E3
:1037A0002C490870FFF752FE02E0002028494870BB
:1037B0002A4802F02AFC00BF39E00A2C01D00D2C67
:1037C00008D10020254948550846FFF79FFF0026ED
:1037D00000252CE02EB1292C29D1012E27D100263D
:1037E00025E0202C23DD2F2C21D0282C01D10126EF
:1037F0001DE03B2C01D1022619E04F2D05DB0B20EB
:1038000000F048F80026002511E0612C0ADB7A2C34
:1038100008DCA4F12000C2B22846691CCDB20F49D1
:103820000A5404E02846691CCDB20C490C5400F03F
:10383000EBFF0446FF28C0D1FFF790FFFFF706FE1D
:10384000034800780028B7D070BD00003200002087
:103850004C000020310000206C00002024040020D7
:1038600010B5FFF77BFF00BFFFF7F0FD08480078B9
:1038700000B110BDFFF75BF80028F5D1044840788F
:103880000828F1D000BFF4E780F3108870470000EB
:103890004C00002010B504461CB9B1A0FFF74FFC46
:1038A00055E0B1A0FFF74BFC172C45D2DFE804F040
:1038B000440C1014181C2024282C30344444444454
:1038C000444444443C384000A9A0FFF738FC3AE0A7
:1038D000ADA0FFF734FC36E0B0A0FFF730FC32E0DB
:1038E000B3A0FFF72CFC2EE0B4A0FFF728FC2AE0E1
:1038F000B7A0FFF724FC26E0B9A0FFF720FC22E0E8
:10390000C0A0FFF71CFC1EE0C1A0FFF718FC1AE0E6
:10391000C2A0FFF714FC16E0C5A0FFF710FC12E0F0
:10392000C7A0FFF70CFC0EE0CBA0FFF708FC0AE0F5
:10393000CEA0FFF704FC06E0D1A0FFF700FC204674
:10394000FFF72CFC00BF00BFD2A0FFF7F8FB10BDB3
:1039500010B50446D0A0FFF7F2FB062C18D2DFE822
:1039600004F01703070B0F13CDA0FFF7E8FB0FE0E0
:10397000CEA0FFF7E4FB0BE0CFA0FFF7E0FB07E0F2
:10398000D2A0FFF7DCFB03E0D3A0FFF7D8FB00BF1A
:1039900000BFC0A0FFF7D3FB4FF4FA7002F0FFFEA8
:1039A00010BD10B50446CFA0FFF7C9FB092C26D2E5
:1039B000DFE804F02505090D1115191D2100CAA025
:1039C000FFF7BDFB1BE0CDA0FFF7B9FB17E0D0A0D0
:1039D000FFF7B5FB13E0D3A0FFF7B1FB0FE0D3A0D7
:1039E000FFF7ADFB0BE0D4A0FFF7A9FB07E0D5A0E4
:1039F000FFF7A5FB03E0D5A0FFF7A1FB00BF00BFC9
:103A0000D7A0FFF79CFB10BD10B5D6A0FFF797FB22
:103A100010BD10B5DB48FFF792FB10BD2DE9F0415A
:103A20006426D9A0FFF78BFBD84991F83000FFF747
:103A3000B5FBD7A0FFF783FBD44991F83300FFF71C
:103A4000ADFBDAA0FFF77BFBD04991F83100FFF71F
:103A5000A5FBDEA0FFF773FBCC4991F83100FFF71F
:103A600095FBE1A0FFF76BFBC84991F83200FFF727
:103A700095FBDFA0FFF763FBC44991F83200FFF725
:103A800085FBE1A0FFF75BFBC04991F84010C1F353
:103A90008000FFF783FBDEA0FFF751FBBB4991F8E5
:103AA0004010C1F38010FFF779FBE2A0FFF747FB5E
:103AB000B64991F84010C809FFF770FBE5A0FFF781
:103AC0003EFBB24991F83400FFF768FBE9A0FFF72D
:103AD00036FBAE4991F83400FFF758FBEBA0FFF737
:103AE0002EFBAA49886BFFF74EFCEAA0FFF727FBE5
:103AF000A649C86BFFF747FCEEA0FFF720FBA349E0
:103B000091F8401001F00100FFF748FBF0A0FFF72B
:103B100016FB9E4991F84010C1F34010FFF73EFBA1
:103B2000F3A0FFF70CFB994991F84010C1F3C000D6
:103B3000FFF734FBF5A0FFF702FB944991F8401022
:103B4000C1F30010FFF72AFBF7A0FFF7F8FA8F493F
:103B500091F84100FFF722FBFAA0FFF7F0FAFFE12E
:103B60006F6B0D0A000000006572726F723A2000E0
:103B7000457870656374656420636F6D6D616E6414
:103B8000206C657474657200426164206E756D62AC
:103B9000657220666F726D6174000000496E766117
:103BA0006C69642073746174656D656E74000000E7
:103BB00056616C7565203C203000000053657474BC
:103BC000696E672064697361626C6564000000005F
:103BD00056616C7565203C20332075736563000069
:103BE000454550524F4D2072656164206661696C95
:103BF0002E205573696E672064656661756C7473F9
:103C0000000000004E6F742069646C6500000000C5
:103C1000416C61726D206C6F636B0000486F6D6961
:103C20006E67206E6F7420656E61626C6564000063
:103C30004C696E65206F766572666C6F7700000068
:103C40004D6F64616C2067726F75702076696F6C60
:103C50006174696F6E000000556E737570706F72DD
:103C600074656420636F6D6D616E6400556E64658C
:103C700066696E65642066656564207261746500BE
:103C8000496E76616C69642067636F64652049449E
:103C90003A0000000D0A0000414C41524D3A20000C
:103CA00048617264206C696D69740000536F6674BA
:103CB000206C696D6974000041626F7274206475D4
:103CC00072696E67206379636C65000050726F6281
:103CD00065206661696C0000486F6D696E672066DB
:103CE00061696C005B000000526573657420746F3D
:103CF00020636F6E74696E75650000002724482785
:103D00007C2724582720746F20756E6C6F636B00BE
:103D100043617574696F6E3A20556E6C6F636B65A5
:103D200064000000456E61626C6564004469736103
:103D3000626C656400000000436865636B20446F3B
:103D40006F72000050676D20456E64005265737499
:103D50006F72696E672064656661756C74730000CC
:103D60005D0D0A000D0A4772626C20302E396A2000
:103D70005B27242720666F722068656C705D0D0AD2
:103D80000000000058AF000824303D00340500203A
:103D90002028737465702070756C73652C207573A2
:103DA0006563290D0A24313D00000000202873744A
:103DB00065702069646C652064656C61792C206D88
:103DC000736563290D0A24323D00000020287374B6
:103DD000657020706F727420696E76657274206DE4
:103DE00061736B3A00000000290D0A24333D000086
:103DF000202864697220706F727420696E76657213
:103E000074206D61736B3A00290D0A24343D000063
:103E100020287374657020656E61626C6520696E20
:103E2000766572742C20626F6F6C290D0A24353D03
:103E30000000000020286C696D69742070696E7341
:103E400020696E766572742C20626F6F6C290D0A82
:103E500024363D00202870726F62652070696E20E4
:103E6000696E766572742C20626F6F6C290D0A245E
:103E700031303D0020287374617475732072657051
:103E80006F7274206D61736B3A000000290D0A2473
:103E900031313D0020286A756E6374696F6E20644D
:103EA0006576696174696F6E2C206D6D290D0A2429
:103EB00031323D00202861726320746F6C6572613D
:103EC0006E63652C206D6D290D0A2431333D000091
:103ED00020287265706F727420696E636865732C38
:103EE00020626F6F6C290D0A2432303D0000000003
:103EF0002028736F6674206C696D6974732C20625E
:103F00006F6F6C290D0A2432313D00002028686152
:103F10007264206C696D6974732C20626F6F6C29F8
:103F20000D0A2432323D00002028686F6D696E67EB
:103F3000206379636C652C20626F6F6C290D0A24F5
:103F400032333D002028686F6D696E6720646972A6
:103F500020696E76657274206D61736B3A000000A3
:103F6000EA4991F84100FFF711F9E9A0FFF7E7F8F6
:103F7000E649486CFFF707FAE7A0FFF7E0F8E349E6
:103F8000886CFFF700FAECA0FFF7D9F8DF4991F849
:103F90004C00FFF703F9F0A0FFF7D1F8DB49086DFB
:103FA000FFF7F1F9F4A0FFF7CAF800BF002572E0AF
:103FB000002469E0F7A0FFF7C2F83119C8B2FFF793
:103FC000EDF8AFF2FC10FFF7BAF835B1012D0AD0C9
:103FD000022D0FD0032D22D117E0CC4951F8240037
:103FE000FFF7D1F91BE0C9490C3151F82400FFF764
:103FF000CAF914E0C549183151F82400E64906F021
:1040000041FB0746FFF7BFF909E0C048243050F8EC
:10401000240080F000473846FFF7B5F900BF00BF25
:10402000DEA0FFF78CF824B1012C06D0022C0CD1B5
:1040300007E0DBA0FFF783F807E0DAA0FFF77FF8DF
:1040400003E0D9A0FFF77BF800BF00BF35B1012D19
:1040500008D0022D0AD0032D10D10BE0D3A0FFF71A
:104060006EF80BE0D4A0FFF76AF807E0D7A0FFF7DF
:1040700066F803E0DAA0FFF762F800BF00BFDCA03B
:10408000FFF75DF8601CC4B2032C93DB06F10A0055
:10409000C6B2681CC5B2042D8ADBBDE8F0813EB50E
:1040A000D4A0FFF74CF8002410E02146D34802F0DA
:1040B00083F94DF824005DF82400FFF726F9022C5F
:1040C00002DACFA0FFF73BF8601CC4B2032CECDB94
:1040D000C9A0FFF734F8C9491039087FFFF75EF827
:1040E000AFF28430FFF72BF83EBD3EB5002538E037
:1040F0006946284600F006FD18B90720FFF7CAFBFD
:104100003EBDC0A0FFF71BF8062D02D0072D08D139
:1041100003E0BDA0FFF713F809E0BCA0FFF70FF81C
:1041200005E005F13601C8B2FFF738F800BF00BF5F
:10413000B1A0FFF704F800240FE05DF82400FFF7BA
:10414000E4F8022C03DAAEA0FEF7F9FF03E0AFF2C9
:10415000F030FEF7F4FF601CC4B2032CEDDB681CEA
:10416000C5B2072DC4DDAAA0FEF7E9FF002410E0C8
:10417000A94951F82400FFF7C8F8022C03DAA0A0DF
:10418000FEF7DDFF03E0AFF22840FEF7D8FF601C2A
:10419000C4B2032CECDBA1A0FEF7D1FF9E49343959
:1041A000086CFFF7B2F8AFF24840FEF7C8FFFFF720
:1041B00076FF00BFA4E710B5AFF2D840FEF7BFFF0F
:1041C00095483438007809281AD2DFE800F005094C
:1041D0000D1119191919150092A0FEF7B0FF1AE078
:1041E00091A0FEF7ACFF16E090A0FEF7A8FF12E04A
:1041F0008FA0FEF7A4FF0EE08EA0FEF7A0FF0AE05E
:104200008DA0FEF79CFF844934390978891EC8B215
:10421000FEF7C4FF00BF00BF89A0FEF790FF7E49F4
:10422000343989793631C8B2FEF7B8FF7A48343864
:10423000007920B1012806D002280CD107E081A026
:10424000FEF77DFF07E081A0FEF779FF03E081A084
:10425000FEF775FF00BF00BF6F483438807818B98B
:104260007EA0FEF76CFF02E07EA0FEF768FF6A48C2
:104270003438C07818B97DA0FEF761FF02E07DA058
:10428000FEF75DFF644834384078012803D17BA0F5
:10429000FEF755FF02E07BA0FEF751FF5E48343881
:1042A000C07920B1012806D002280CD107E077A000
:1042B000FEF745FF07E076A0FEF741FF03E075A09B
:1042C000FEF73DFF00BF00BF53483438407A60B16D
:1042D000012802D002280CD103E06FA0FEF72FFFC7
:1042E00007E06EA0FEF72BFF03E06DA0FEF727FFAF
:1042F00000BF00BF48483438007A10B1022803D10B
:10430000D2E068A0FEF71BFFD2E0000034050020D9
:10431000290D0A2432343D002028686F6D696E67CC
:1043200020666565642C206D6D2F6D696E290D0A00
:104330002432353D000000002028686F6D696E67EB
:10434000207365656B2C206D6D2F6D696E290D0ACC
:104350002432363D000000002028686F6D696E67CA
:10436000206465626F756E63652C206D73656329CB
:104370000D0A2432373D00002028686F6D696E6792
:104380002070756C6C2D6F66662C206D6D290D0A82
:10439000000000002400000000006145202800000B
:1043A00078000000790000007A0000002C2073746F
:1043B00065702F6D6D000000206D61782072617452
:1043C000652C206D6D2F6D696E00000020616363A8
:1043D000656C2C206D6D2F7365635E3200000000EC
:1043E000206D61782074726176656C2C206D6D0093
:1043F000290D0A005B5052423A0000005C00002088
:104400002C0000005B470000323800003330000011
:104410005B4739323A000000A00000205B544C4F4B
:104420003A000000473000004731000047320000EA
:1044300047330000473830004733382E0000000073
:104440002047000020473137000000002047313866
:1044500000000000204731390000000020473231C1
:1044600000000000204732300000000020473930B3
:104470000000000020473931000000002047393398
:10448000000000002047393400000000204D3000BB
:10449000204D3100204D3200204D3300204D34009E
:1044A000204D3500204D39008AA0FEF748FE00BFA0
:1044B00000BF89A0FEF743FE8849087DFEF76EFE27
:1044C00087A0FEF73CFE85490869FEF73DFF85A001
:1044D000FEF735FE8149C868FEF736FFAFF28070FF
:1044E000FEF72DFE10BD70B505460C467EA0FEF70A
:1044F00026FE2846FEF752FEAFF23470FEF71FFE8E
:104500002046FEF711FEAFF67400FEF718FE70BDF0
:1045100010B5044675A0FEF712FE2046FEF704FE15
:10452000AFF2C470FEF70BFE10BD10B5044673A0C9
:10453000FEF705FE2046FEF7F7FDAFF2DC70FEF752
:10454000FEFD10BD30B587B06E4A121D07CA04AB20
:1045500007C36C484078082814D007DC68B10128EC
:104560001CD002281ED0042824D113E010280DD01E
:1045700020281BD040281DD103E063A0FEF7DFFDFB
:1045800018E000BF62A0FEF7DAFD13E062A0FEF7BC
:10459000D6FD0FE062A0FEF7D2FD0BE062A0FEF7B1
:1045A000CEFD07E062A0FEF7CAFD03E062A0FEF7C1
:1045B000C6FD00BF00BF624890F8340000F0030061
:1045C00018B104A901A801F029FF5D4890F8340052
:1045D00000F0010098B15BA0FEF7B1FD00240CE0F3
:1045E00001A951F82400FEF790FE022C03DAAFF285
:1045F000F010FEF7A4FD601CC4B2032CF0DB5048A1
:1046000090F8340000F0020090B350A0FEF797FD40
:1046100000242BE0314A343252F824100C3A52F87C
:10462000240005F0C1FF054601A850F824102846D3
:1046300006F0B7FA01A941F82400022C09D1274A53
:10464000116C01AA52F8240006F0B6FA01A941F84B
:10465000240001A951F82400FEF757FE022C03DACA
:10466000AFF26420FEF76BFD601CC4B2032CD1DBFB
:10467000334890F8340000F0040038B135A0FEF75C
:104680005EFDFEF720FD0546FEF788FD2C4890F8FC
:10469000340000F0080038B130A0FEF750FD00F003
:1046A00067F80546FEF77AFD254890F8340000F0DB
:1046B000100048B12BA0FEF742FDFDF762F9054658
:1046C00003220221FEF741FD28A0FEF738FD07B0C6
:1046D00030BD0000204D3800205400006C00002048
:1046E0002046000020530000244E00005B302E398D
:1046F0006A2E427920507A683A0000005B65636850
:104700006F3A20004C0000203C49646C65000000BA
:104710003C52756E000000003C486F6C6400000065
:104720003C486F6D650000003C416C61726D00009B
:104730003C436865636B00003C446F6F720000008F
:10474000340500202C4D506F733A00002C57506FE9
:10475000733A00002C4275663A0000002C52583A19
:10476000000000002C4C696D3A0000003E0D0A006C
:104770007448017874480078884204DB72480078F5
:10478000401AC0B2704770480078081AC0F1800023
:10479000C0B2F7E76D4801786D480078884204DBC5
:1047A0006B480078401AC0B2704769480078081A10
:1047B000C0F14000C0B2F7E710B54FF4E13004F0AB
:1047C000C1F810BD70B5054661480078401CC4B200
:1047D000402C00D1002405E05E48007800F0100075
:1047E00000B170BD594800788442F5D05A48584904
:1047F0000978455456480470012240F22771574801
:1048000003F05FFC00BFECE74E4801784E480078AB
:10481000884201D1FF207047514A505C4A1CD1B2F6
:10482000802900D10021474A117000BFF3E770B51D
:1048300040F22551494803F013FD00285AD047485B
:1048400003F0A4FCC6B23F2E0AD004DC182E3BD0E5
:10485000212E3CD11EE0402E29D07E2E37D10CE0F7
:10486000012000F06BF83B48007840F00100394926
:104870000870002000F062F83BE0012000F05EF8D4
:104880003448007840F0020032490870002000F0FF
:1048900055F82EE0012000F051F82E48007840F045
:1048A00008002C490870002000F048F821E00120A1
:1048B00000F044F82748007840F0200025490870AF
:1048C000002000F03BF814E0FDF72EFE11E01E483A
:1048D0000078401CC5B2802D00D100251948007811
:1048E000854205D01E481849097846541648057077
:1048F00000BF00BF40F22771184803F0C7FCB8B1F1
:10490000124804781448015D144803F03BFC601C15
:10491000C4B2402C00D100240C4804700C4800782C
:10492000844205D1002240F227710C4803F0C9FBF4
:1049300070BD0548007803490870704780F31088FF
:10494000704700001A000020190000201C00002001
:104950001B00002031000020F4040020003801403A
:104960007404002070B504460D4604EB041000EBFF
:10497000841000F54076502229463046FBF79EFD14
:1049800070BD10B504465022214640F2AE30FBF710
:1049900095FD10BD70B504460D4604EB840000EB98
:1049A000C40000F500760C2229463046FBF786FD50
:1049B00070BD10B509210020FBF772FD5422FC499F
:1049C0000120FBF77BFD10BD3EB5044604F001005D
:1049D000002844D00A20F64981F83000192081F8D7
:1049E0003300002081F8310081F83200032081F883
:1049F0003400F0488863F048C863012081F8410022
:104A0000EE484864EE488864FA20A1F84C004FF064
:104A10007E500865002081F84000084690F840006C
:104A200040F0100081F84000E64808604860886067
:104A3000E548C8600146DE4801614161E348DC4960
:104A400088610146DA48C1610162E148D84948629B
:104A50000146D7488162DF49C162FFF7AAFF04F02F
:104A6000020070B10020009001900290002505E046
:104A700069462846FFF78EFF681CC5B2072DF7DD93
:104A800000BF04F0040048B100214FF44070FBF770
:104A900007FD002140F25130FBF702FD04F0080051
:104AA00020B1002140F2AE30FBF7FAFC3EBD70B5FC
:104AB00005460C4605EB051000EB851000F5407629
:104AC000502231462046FBF71AFD38B900202070ED
:104AD00021462846FFF746FF002070BD0120FCE775
:104AE00010B50446502240F2AE312046FBF707FDD8
:104AF00030B9002020702046FFF743FF002010BD92
:104B00000120FCE770B505460C4605EB850000EB7F
:104B1000C50000F500760C2231462046FBF7EFFC7D
:104B200048B9002020606060A06021462846FFF759
:104B300031FF002070BD0120FCE710B50020FBF71D
:104B4000A1FC0446092C07D1542201219848FBF707
:104B5000D6FC18B9002010BD0020FCE70120FAE7C0
:104B60002DE9F04705460E464FF00009304605F0A6
:104B7000EFFC07460022134605F09EF902D20420FE
:104B8000BDE8F087642D43DBA5F16400C5B23BE0CE
:104B9000032D2BDAB9F1000F09D0B9F1010F0AD0BA
:104BA000B9F1020F0CD0B9F1030F1DD115E0804807
:104BB00040F8256018E07E480C3040F8256013E08E
:104BC0008549304605F0F0FE0746834905F0ECFEC6
:104BD0007749183141F8250006E086F00041744815
:104BE000243040F8251000BF00BF10E009F101009B
:104BF00000F0FF090A2D02DBB9F1040F01D10320F7
:104C0000BEE7A5F10A00C5B2B9F1040FC0DBF9E0B7
:104C1000304605F049FEC4B21C2D74D2DFE805F021
:104C20000E161A2026394CEFEFEF5F636669EFEF3F
:104C3000EFEFEFEF7D98ADDEE2E5E8EC032C01DA73
:104C400006209DE75A4880F83040DAE0584880F85E
:104C50003340D6E0564880F8314000F097FBD0E072
:104C6000534880F8324000F091FBCAE044B150480C
:104C700090F8400040F004004D4981F8400007E002
:104C80004B4890F8400020F00400494981F840006A
:104C9000B7E044B1464890F8400040F04000444935
:104CA00081F8400007E0424890F8400020F04000C2
:104CB0003F4981F84000A4E044B13D4890F84000ED
:104CC00040F080003A4981F8400007E0384890F809
:104CD000400020F08000364981F8400091E03448DF
:104CE00080F834408DE0324886638AE03048C663FD
:104CF00087E04CB12E4890F8400040F001002C496C
:104D000081F8400008E07AE0294890F8400020F05F
:104D10000100274981F8400073E084B1244890F8ED
:104D2000400000F0100008B90A2029E7204890F858
:104D3000400040F020001E4981F8400007E01C4878
:104D400090F8400020F02000194981F8400058E018
:104D500044B1174890F8400040F00800144981F829
:104D6000400007E0124890F8400020F00800104989
:104D700081F84000FCF7BFFD43E044B10C4890F8D7
:104D8000400040F010000A4981F840000EE0084859
:104D900090F8400020F01000054981F840000846D6
:104DA00090F8400020F0200081F8400029E023E046
:104DB000340500200AD7233C6F12033B00803B459B
:104DC00000401C4600007A430060EA4600A00C4701
:104DD000000082C2000048C200007042214880F8F2
:104DE00041400EE01F4846640BE01E48866408E020
:104DF0001C48A0F84C4004E01A48066501E0032076
:104E0000BEE600BFFFF7D5FD0020B9E610B5FFF7FD
:104E100094FE38B90720FEF73DFDFF20FFF7D4FDD3
:104E2000FEF7FCFD10BD014609B9042070470129B9
:104E300001D10820FAE71020F8E7014609B920203F
:104E40007047012901D14020FAE78020F8E70146A8
:104E500009B902207047012901D10420FAE708208E
:104E6000F8E700003405002010B54FF0804003F053
:104E70009CFC002202214B4803F034FC10BD1CB501
:104E800049484FF0804101231A46CDE900104549B9
:104E9000042003F03EFC02224249042003F0F8FB08
:104EA00004224049104603F0F3FBFFF7DDFF1CBD71
:104EB0002DE9FF4704460D4614B9FFF7D5FF5EE024
:104EC000012C05D100220421364803F00BFC04E03C
:104ED00001220421334803F005FC284605F038FB85
:104EE00006460022134604F0E7FF02D8FFF7BCFF96
:104EF00045E0284605F02CFB06460022134604F048
:104F0000DBFF01D2002515E0284605F021FB814694
:104F10000022134605F032FA064604F0C3FC0546AB
:104F2000284605F015FB06460022204B05F0FEF84A
:104F300000D21F4D284605F00BFB1E4A1E4BCDE943
:104F4000000104F0F5FF064600221C4B04F0DCFCD7
:104F5000814604F0C3FBCDE9020104F055FF1FFABE
:104F600080F841464FF0804003F017FC4FF080403E
:104F700003F022FC012202210A4803F0B3FBBDE842
:104F8000FF8770B504460D460D484078022800D1D1
:104F900070BDFEF765FC29462046FFF789FF00BF7C
:104FA000F6E700000008014000FF7F4700408F4007
:104FB00000007A440AD7A3703D6250400000E03FF1
:104FC0004C00002010B5FE4890F8400000F00400AE
:104FD00028B10122D102FB4803F084FB05E0002246
:104FE0004FF40061F74803F07DFBF748407800F08C
:104FF0000C0068B1F5480078F549C873F5480078A9
:105000008873EF4890F83000801E487303F056FC18
:1050100010BD10B503F058FC0020EF4908700024C3
:10502000E74890F83300FF2802D1EC48007848B1F7
:10503000E5484078042805D0E14991F8330001F0B3
:10504000AEFB0124DE4890F8400000F0040008B1F7
:1050500084F001042CB10122D102DA4803F042FBB2
:1050600005E000224FF40061D64803F03BFB10BD81
:1050700010B50121DA4802F034FF00287ED001216A
:10508000D74802F03FFFD448007800B110BDD048A7
:10509000C07BC0F340124FF48071CA4803F022FB7A
:1050A000CB48C07BC0F380124FF40071C54803F0B9
:1050B00019FBC748C07BC2094FF48061C14803F0A7
:1050C00011FBC348807BC0F380022021BD4803F060
:1050D00009FBBF48807BC0F3C0024021B94803F000
:1050E00001FBBB48807BC0F300128021B54803F070
:1050F000F9FAB748417B082003F005FC03F0F7FB01
:105100000120B5490870002080F3108800BFB04826
:10511000406A002867D1B3480078B34909788842CB
:1051200050D0B248B049097800EBC100A8494862A4
:105130000846406A80884110082003F0CBFBA44851
:10514000406A0088A24988830846807F496A897836
:10515000884216D09E48406A80789D4988770846E4
:10516000807F00EB8000A24901EB80009849086233
:105170000846006A00694008886000E0DFE0486097
:1051800008609348006A007890490978484090493F
:10519000C8730846006A4068496A8979C8408C49E2
:1051A00008610846006A8068496A8979C840884968
:1051B00048610846006AC068496A8979C8408449DC
:1051C000886110E0FFF725FF012080F3108800BF01
:1051D0008848007840F0040086490870002080F379
:1051E000108800BF52E7FEF70CF900207849887359
:1051F000084600680969084475490860084600685F
:10520000096A096988421DD97148807B40F0040011
:105210006F49887308460068096A0969401A6C4931
:1052200008600846006A007800F0200028B166484F
:105230004068401E6449486004E063484068401C80
:105240006149486062484168406908446049486073
:1052500008464068096A096988421DD95C48807B14
:1052600040F008005A49887308464068096A09698D
:10527000401A574948600846006A007800F040002C
:1052800028B151488068401E4F49886004E04E486C
:105290008068401C4C4988604D488168806908449A
:1052A0004B49886008468068096A096988421DD9A7
:1052B0004748807B40F01000454988730846806865
:1052C000096A0969401A424988600846006A0078FC
:1052D00000F0800028B13C48C068401E3A49C860D0
:1052E00004E03948C068401C3749C86036484078F7
:1052F000042806D13648807B3349497F0840344929
:1053000088733348808B401E314988830846808BE0
:1053100058B90020486234480078401CC0B2324975
:105320000870062801D1002008702948807B29498F
:10533000097848402649887300202749087000BF33
:10534000A4E610B501212C4802F0CBFDE8B1012103
:10535000294802F0D7FD1F480078C0F380022021C1
:10536000184803F0BFF91B480078C0F3C002402181
:10537000144803F0B7F917480078C0F300128021F1
:10538000104803F0AFF903F0B8FA10BD10B50020D3
:10539000104908700D49087000243FE0084890F853
:1053A00031000121A140084038B12046FFF73BFD04
:1053B0000849097808430749087001481EE00000C1
:1053C00034050020000C01404C0000202400002087
:1053D0001C060020230000202500002032000020B1
:1053E000000400402100002020000020EC050020E7
:1053F00088050020310000200008004090F832109D
:105400000120A040014039B12046FFF716FDFE49BA
:1054100009780843FC490870601CC4B2032CBDDB4A
:1054200010BD10B5FFF7F5FD3021F84803F022FB61
:105430002821F74803F01EFB0020F5494862F54992
:105440000860F5490870F54908700120F4490870B2
:105450000020F4490870FFF799FFF3480078C0F383
:1054600080022021F14803F03DF9EF480078C0F3B5
:10547000C0024021ED4803F035F9EB480078C0F355
:1054800000128021E94803F02DF9DF480078C0F3CD
:1054900040124FF48071E54803F024F9DA480078AF
:1054A000C0F380124FF40071E04803F01BF9D648B6
:1054B0000078C2094FF48061DC4803F013F910BD95
:1054C00010B52022D949082003F0E2F84022D7493C
:1054D000082003F0DDF88022D449082003F0D8F832
:1054E0004FF48072D149082003F0D2F84FF40072D3
:1054F000CE49082003F0CCF84FF48062CB49082055
:1055000003F0C6F84FF40062C849082003F0C0F861
:1055100003F05AF910BD10B5BE48006868B101200B
:10552000BA4948700A46D169D06905F03DFAB949CF
:10553000096848610020B749086010BD00B5A1B0F6
:10554000BB48407800F0700068B1B048C0690D9069
:1055500004F0FEFF00221346CDE90E0104F0E8FB43
:1055600001D121B000BDFDE3AA48006800287DD12B
:10557000FDF7DDF9A74908600846006800B9F0E7C3
:10558000A248407818B10020A049487083E09F48A5
:105590000078401CC0B29D490870052801D1002048
:1055A00008709A48007800EB8000A24901EB800067
:1055B000A149086097480068007809680870954814
:1055C00000684068C0009C490968486091480068CC
:1055D0008068C1009848006881608E480068C06893
:1055E000C10095480068C1608A4800680069C00031
:1055F0009149096808618748006800690F9005F0C3
:105600008BF98249486083480068806A0F90084699
:1056100040680E900F9905F035F87C49886008467F
:1056200080680B9004F094FF02460B46CDE90C0114
:105630000020824904F024FACDE90E0104F032F989
:105640007249C860002008617948407800F0700015
:1056500088B10846406AC8610846406A0F9008460B
:10566000406A0E900F9905F09FF900E077E16949D3
:10567000096848610FE06748006840690B9004F0D2
:1056800067FFCDE90C0104F0E7F8CDE90E0104F065
:1056900009F95E49C86100205C4988615D4800687D
:1056A000406A0B9004F054FF02460B46CDE90C0112
:1056B0000020634904F0E4F9CDE90E0104F0F2F8AA
:1056C00020905B48407800F0700000284ED0022007
:1056D0004E4908754F480068406901460E90209871
:1056E00005F062F90F904B480068806A01460E9001
:1056F0000F9805F056FA1F901F9804F029FF00221A
:105700001346CDE90E0104F0D7FB28D241480068CA
:10571000406A014608904FF0804005F045F9099035
:105720003C480068806A01460890099805F03CF9F9
:105730000A90384800684069014609900A9805F0C7
:1057400030FA0B9004F004FFCDE90C0104F084F86A
:10575000CDE90E0104F0A6F82C494862FFE02B4980
:105760001F988861002129484162F8E000202749FC
:10577000087528480068806A8862FDF7EAF82349BE
:1057800048620846406A0F900846406A0E900F999A
:1057900005F00AF91E901F480068406908901E999C
:1057A00005F00AFA0990209905F0FEF80A901948C8
:1057B0000068806A014609900A9804F0F5FE0B9093
:1057C00004F0C6FE00221E4BCDE90C0104F0B0FB34
:1057D000CDE90E0104F066F81D901D9804F0B8FEA6
:1057E00000221346CDE90E0104F0A0FC75D2094851
:1057F0000068806A01460F901D9805F0A1F86DD2EF
:1058000004480068006A1DE02400002044060020CF
:105810001C0600202800002020000020210000207D
:10582000220000202500002023000020000C014061
:105830004C000020880500202C0000200000F43FD0
:105840000000E03F0E901E9905F0B6F90F902099E8
:1058500005F0AAF8FE49C8620846C06A0F901D9973
:1058600005F06EF83BD2FB480068006A0B9004F02C
:105870006FFECDE90C0103F0EFFFCDE90E0104F05E
:1058800011F8F3490862F3480068006A0F90F14884
:10589000006840690E900F9904F0B6FF03D1012013
:1058A000EB4908755BE0EB48006840690D90E948FA
:1058B0000068006A0C900D9905F07EF90E90209911
:1058C00005F072F80F90E248806A01460E900F983A
:1058D00005F067F9DE49886241E03AE032E0DC49F0
:1058E0001D9888621D98C8621E9804F031FECDE9AB
:1058F0000A011D9804F02CFECDE90601D548006888
:10590000406A019004F024FE00224FF08043CDE96C
:10591000020104F00DFBCDE90401DDE9062304F0EA
:1059200007FBCDE90801DDE90A2303F0EDFFCDE92E
:105930000C0103F091FFCDE90E0103F0B3FFC44960
:1059400008620CE00220C24908750846C069086276
:1059500005E00020BE4988620846406A0862BE48E9
:10596000BE49097800EBC1001C90B94801781C9829
:105970008170BB481B901B98199000201A90B54865
:105980000068806A1690B248C06801460F90169869
:1059900005F012F91590159804F0DAFD002213466F
:1059A000CDE90E0104F088FA01D20020159000BF65
:1059B000A748007D10B101287AD18BE0A548006886
:1059C000406A0F90199904F0EFFF1790179804F0B0
:1059D000BFFD0022A34BCDE9000104F0A9FACDE9F7
:1059E00004019B48C069019004F0B2FDCDE90201B9
:1059F000DDE9042303F088FFCDE90801199804F0DC
:105A0000A7FDCDE90601DDE9082304F091FACDE90F
:105A10000C01169804F09CFDCDE90A01DDE90C2388
:105A200004F0ACFCCDE90E0103F03CFF1690884871
:105A3000806A01460F90169804F082FF41D2844894
:105A4000806A16908248006A08908148C069079071
:105A5000089904F0A9FD099004F07AFDCDE90C0144
:105A60007C480068806A0690169905F0A5F80790B2
:105A700004F06EFD00224FF08043CDE9080104F0F0
:105A800057FACDE90A01DDE90C2303F0F9FFCDE96E
:105A90000E0103F007FF19906D48C06A01460F9090
:105AA000169804F0B1FE04D102206949087503E09C
:105AB0003DE00120664908756548006A6449C8618F
:105AC00007E06348C0690F90179904F06DFD6049C5
:105AD000C861ADE05E48006A0E90199904F064FF59
:105AE0000F90169905F05DF818905948C06A014664
:105AF0000F90189804F024FF16D25548C06A01464A
:105B00000E90169805F058F80F905148006A01461B
:105B10000E900F9804F0B6FD19904D48C06A16908B
:105B200002204B49087501E01898169080E049481A
:105B30000068406A0F90199904F036FF17904448A6
:105B4000C0690F90179904F0FBFF43D2179804F037
:105B5000FFFC0022434BCDE9000104F0E9F9CDE957
:105B600004013B48C069019004F0F2FCCDE9020158
:105B7000DDE9042304F002FCCDE90801199804F0E2
:105B8000E7FCCDE90601DDE9082304F0D1F9CDE910
:105B90000C01169804F0DCFCCDE90A01DDE90C23C8
:105BA00004F0ECFBCDE90E0103F07CFE18902848D0
:105BB000806901460F90189804F0C2FF0AD2189825
:105BC00016902348C0690F90179904F0F5FF2049FB
:105BD000C8612DE01E48406A08901D48C0690790C2
:105BE000089904F0E1FC099004F0B2FCCDE90C0145
:105BF0001748806901460690169804F0DDFF07906B
:105C000004F0A6FC00224FF08043CDE9080104F027
:105C10008FF9CDE90A01DDE90C2303F031FFCDE96D
:105C20000E0103F03FFE199009488069169000BFED
:105C300000BFDDE9191004F0B7FC1A90DDE91A0184
:105C400004F07EFE12D2DDE91A1004F0B5FF0BE07D
:105C50004406002028000020EC0500202100002040
:105C60003EC32E390000E03F199019E0DDE9151020
:105C700004F066FF13D21B9804F06AFC944A954B1B
:105C8000CDE90C0103F040FECDE90E0103F00AFE60
:105C90001B90DDE91A1004F08FFF199000E008E076
:105CA0008D48806901460F90169804F049FFFFF473
:105CB0007FAE00BF884880680F90169904F074FE8C
:105CC0001490149804F044FCCDE90C0103F04AFC54
:105CD000CDE90E0103F0E6FD13907F4840680B907C
:105CE00004F036FCCDE90C0103F03CFCCDE90E01DB
:105CF00003F0D8FD1290DDE9120104F05DFF0F9072
:105D000004F0D2FD81B21C9801801C980088C8B9AB
:105D10007248407800F07000A0B100206E49C86160
:105D2000086113984860084680680F9008464068EC
:105D30000E900F9904F0A6FC694909688862FDF786
:105D4000D8F90EE46448006901460F901A9804F0EF
:105D50002BFC1A901499129804F02EFF01460F9014
:105D60001A9800E0ABE004F08DFC1190DDE913011E
:105D700004F022FF0F90119904F016FE56490861B5
:105D80005848119904F010FE5749099004F00CFE90
:105D900056490A9004F008FE0B9004F0D9FBCDE9B7
:105DA0000C0103F0DFFBCDE90E0104F02DF810909B
:105DB00042F228311098884203D200211C98817148
:105DC00021E044F250611098884203D201211C98CE
:105DD00081710BE048F6A0411098884203D202215D
:105DE0001C98817102E003211C9881711C988179B3
:105DF0001098C84010901C9800881C998979884098
:105E000081B21C9801801098B0F5803F04D21098A0
:105E100081B21C98818003E04FF6FF711C9881804D
:105E2000334800783349087031480078401CC0B2CC
:105E30002F490870062801D1002008702648806983
:105E400001460F90169804F07BFE07D2244916985D
:105E50000968886220491498486030E0169804F078
:105E600077FB00221346CDE90E0104F05FF921D241
:105E700000201949C861002117480161149804F0F5
:105E800067FBCDE90C0103F06DFBCDE90E0103F0DA
:105E900009FD11494860084680680F90084640682F
:105EA0000E900F9904F0EEFB0D4909688862FDF72A
:105EB00020F946E700210A480160FCF720FD0E4862
:105EC00000780B49097888427FF44EAB00BF38E771
:105ED000A5E2ECC367D8253F440600204C00002013
:105EE0002800002000247449000070420000904205
:105EF00022000020210000202000002010B52022D8
:105F0000FA49042002F0D9FB4022F849042002F0AB
:105F1000D4FB8022F549042002F0CFFB4FF48072BD
:105F2000F249042002F0C9FB0C23202205210020A5
:105F300002F070FB0C2340220621002002F06AFBD5
:105F40000C2380220721002002F064FB0C234FF475
:105F500080720821002002F05DFB01222021E3482D
:105F600002F0C0FB01224021E04802F0BBFB01220D
:105F70008021DE4802F0B6FB01221102DB4802F06C
:105F8000B1FB00221146172002F060FB10BD70B576
:105F90002021D64802F0B5FB05464021D34802F047
:105FA000B0FB45EA40058021D04802F0AAFB45EA53
:105FB00080054FF48071CD4802F0A3FB45EAC00094
:105FC00000F00F0484F00F04C4B104F0010010B11C
:105FD000FCF7AAFA12E004F0040030B1C4480078DB
:105FE00040F00200C249087008E004F0020028B145
:105FF000BF48007840F00800BD4908704FF4F070C9
:1060000000F0EDFC70BD0020704770B5044600251F
:1060100015E021462846FEF74AFD18B90720FDF78E
:1060200039FC0AE0207840B12046FDF77DF8204693
:10603000FAF7BAFA0646FDF72DFC681CC5B2022D28
:10604000E7DB70BDFEB504460120029000259DF8F7
:106050000800205C43280ED003DC38B1242859D135
:1060600007E0472806D0582854D105E0FDF7D1FCB9
:106070008FE100BF00BF00BF9DF80800401C205CFE
:1060800008B10320FEBD9DF80800205C242806D03E
:10609000432811D047280CD0582839D122E0954800
:1060A000407800F0180008B10820EBE7FDF7B6FCD7
:1060B0002EE0FEF780F82BE08E484078022805D1CC
:1060C000FCF732FA0520FDF76CFC0AE089484078BD
:1060D00008B10820D6E70220864948700420FDF761
:1060E00060FC15E083484078012810D10320FDF7BB
:1060F00058FC00207F494870FFF785FF38B17C4885
:10610000007840F020007A490870FDF79FF900BF41
:1061100000BF3EE17748407828B1764840780128B2
:1061200001D00820AEE79DF80800205C49283BD04C
:1061300004DC232807D0482878D110E04E2876D0F8
:106140005228F9D15EE09DF80800401CC0B20290D0
:10615000205C08B1032095E7FDF7C7FF17E166480B
:1061600090F8400000F01000D8B104206149487058
:10617000FFF749FF38B15E48007840F020005C49E5
:106180000870FDF763F9FCF73BF95A48007850B9FD
:10619000002058494870FEF73CFF2046FFF735FFC6
:1061A00001E005206EE7F2E09DF80800401CC0B257
:1061B0000290205C30B92046FEF792FC2046FEF7A4
:1061C000A7F91EE09DF80810481CC0B20290605C60
:1061D0003D2801D0032055E79DF8085000BF9DF8E9
:1061E0000800205C9DF80810491B60549DF80810B9
:1061F000481CC0B20290605C0028F0D12046FEF737
:10620000C0FBC4E09DF80800401CC0B20290205CB6
:10621000532801D0032035E79DF80800401CC0B288
:106220000290205C542803D003202BE755E032E095
:106230009DF80800401CC0B20290205C3D2801D0AF
:1062400003201FE79DF80800801C205C08B1032094
:1062500018E79DF80800401CC0B20290205C23287B
:1062600008D0242802D02A280CD107E00120FEF70C
:10627000ABFB09E00220FEF7A7FB05E0FF20FEF7DD
:10628000A3FB01E00320FDE600BF0820FDF789FB2A
:10629000FCF74AF97BE09DF80800401CC0B2029070
:1062A000205C98B900250EE021462846FEF7FFFB4A
:1062B00018B90720FDF7EEFA03E021462846FEF75D
:1062C00012F9681CC5B2022DEEDB60E00948407887
:1062D00008B10820D6E6012500BF01AA02A9204680
:1062E000FCF772F950B90220CCE60000000801402A
:1062F000310000204C000020340500209DF80810DB
:10630000481CC0B20290605C3D2801D00320B9E671
:106310000DB39DF8085000BF9DF80800205C9DF863
:106320000810491B60549DF80810481CC0B2029028
:10633000605C0028F0D12046FAF736F905460DB129
:1063400028469FE6019804F0AFFAC5B221462846D8
:10635000FEF708FB1BE06A4602A92046FCF734F969
:1063600008B902208EE69DF80800205C20B9334968
:10637000019804F0E5FB01D2032083E6019804F0C4
:1063800093FAC6B230460099FEF7EAFB7AE600BF00
:1063900000BF00BF002075E60146D1E90003C21A24
:1063A00002EBD270401070470146D1E90003C218D9
:1063B00002EBD270401070472DE9F04106460C46C2
:1063C0006CB93046FFF7F0FF804604F08DFA0746BF
:1063D0001B480168384604F055F905461BE0012CBE
:1063E0000DD13046FFF7D8FF804604F07DFA07460E
:1063F00013484168384604F045F905460BE056F865
:10640000240004F071FA07460D4850F8241038466D
:1064100004F038F905462846BDE8F08170B5054618
:106420000E46002407E021463046FFF7C5FF45F839
:106430002400601CC4B2032CF5DB70BD00007F4358
:1064400034050020AB4A0A400243AB4B1A60704748
:106450000146072323EA01021202A74B1B1D1868FD
:106460004FF6FF031840A54B18431043A24B1B1DCA
:10647000186070472DE9F0478046894614461D464E
:106480002046E11704EB9171C1F3870AE11704EB91
:1064900091718910A4EB8101CFB2042000EBC700F9
:1064A000C7B22846FFF7D4FFC5F1040008FA00F68A
:1064B0000F20284100EA0900064306F00F06202CB1
:1064C00009DA8F4801680120A04001434FF0E02025
:1064D000C0F800110BE08A48001D0068A4F12001FB
:1064E00001228A4010434FF0E021C1F804018548A1
:1064F00010F80A0006FA07F10843C1B2814800F813
:106500000A10BDE8F08770B504460B46CE1701EBC4
:106510009676C6F38700CE1701EB9676B610A1EB00
:106520008606B606350E784B9B6943F00103764E1E
:10653000B3614FEAB63353F820300F26AE40B34371
:10654000724E46F82030334653F8203004FA05F6F0
:106550001E436E4B43F820606D4B1B6801268E4036
:1065600033436B4E336002F0010343B1684B0C338D
:106570001B6801268E403343654E0C36336002F0B3
:10658000020343B1624B08331E6801238B401E4354
:106590005F4B08331E6070BD00B500205A4908618A
:1065A000C8601420486100208861C86108460068FE
:1065B00040F00100086008464068564908405249CA
:1065C000486008460068544908404F49086008463A
:1065D000006820F4802008600846406820F4FE002F
:1065E00048600020886000214FF00060FFF72AFF1C
:1065F00000BD10B540480830006840F004003E4936
:10660000083108604048C06940F080503E49C86188
:106610004248406840F4807040494860084600683D
:1066200040F0040008600846006840F0020008607E
:10663000F9F7AAFD10BD3148001D2F49091D08605A
:10664000704701464906304A926942F001022E4BDA
:106650009A612E4A083A526822F0E0622B4B083BBE
:106660005A601A4652680A435A60704730B5044669
:106670000025FFF791FF2448006840F4803022494C
:10668000086000BF20480068400C0028FAD04FF492
:1066900080601D494860A01EC4B20846406840EAB8
:1066A000844048600846406840F4803048601C4898
:1066B000006840F032001A4908601348006840F052
:1066C00080701149086000BF0F480068400E002824
:1066D000FAD00D48406840F002000B49486005E0E0
:1066E00009484068C0F3870505F00305022DF7D17E
:1066F00030BD000080FFFF1F08ED00E00000FA053C
:1067000000E100E000E400E0001002400800014069
:10671000000401400000FFF8FFFFF6FE007000409B
:106720000020024010B56FF0040000F0B4F82E48CD
:1067300000682E49B0FBF1F02D490870084600783A
:1067400000EB4001C1EBC0104FF6FF7101EAC00041
:106750002849088010BD0146254A12784A434FF067
:10676000E0235A6100229A611A46126942F001023E
:106770001A6100BF4FF0E022106900F001021AB167
:1067800000F48032002AF5D04FF0E022126922F0A6
:1067900001024FF0E0231A6100229A61704701461E
:1067A000144A12884A434FF0E0235A6100229A614A
:1067B0001A46126942F001021A6100BF4FF0E0224E
:1067C000106900F001021AB100F48032002AF5D0FD
:1067D0004FF0E022126922F001024FF0E0231A612B
:1067E00000229A61704700000000002000127A0029
:1067F000340000203600002031490143314A116045
:10680000704770B5002100230F22C47804B32D4CCB
:10681000246804F4E064C4F5E064210AC1F10403CF
:10682000CA40447804FA03F18478144021430901F2
:10683000254C0678A155047804F01F050124AC40CE
:1068400005786D11AD0005F1E025C5F8004109E0BE
:10685000047804F01F050124AC401C4D0678761125
:1068600045F8264070BD1A4A0A400243154B1B1FCB
:106870001A60704739B1134A121D12680243114B56
:106880001B1D1A6006E00F4A121D126882430D4B51
:106890001B1D1A607047042808D14FF0E0210969D8
:1068A00041F004014FF0E022116107E04FF0E021D8
:1068B000096921F004014FF0E022116170470000E6
:1068C0000000FA050CED00E000E400E080E100E0EB
:1068D00080FFFF1F002044490860091D0860091D52
:1068E0000860091D086041483F491431086070473D
:1068F00000213D498279002A3AD00A46126803688D
:106900009A430B461A600A1D126803689A430B1DCE
:106910001A60027911440A6803681A430A60324A0D
:106920000832126803689A432F4B08331A601A1D05
:10693000126803689A432C4B0C331A604279102A70
:106940000ED11A1F126803681A43274B08331A60C6
:106950001A1D126803681A43234B0C331A600DE0AA
:106960002149427911440A6803681A430A6005E024
:10697000027911440A6803689A430A60704700214B
:10698000016001710C21417100218171704716492C
:10699000103109680143144A1032116070470146F2
:1069A0000020114A143212680A400AB1012000E0A6
:1069B000002070470C4914310860704701460020E0
:1069C0000022094B1B6803EA0102074B14331B68C2
:1069D0000B4013B10AB1012000E0002070470249CA
:1069E000143108607047000000040140FFFF0F00F1
:1069F00010B50446CC48844208D10121042000F09F
:106A00002DFB0021042000F029FB46E0C74884420A
:106A100008D10121082000F021FB0021082000F00E
:106A20001DFB3AE0C248844208D10121102000F049
:106A300015FB0021102000F011FB2EE0BD48844220
:106A400008D10121202000F009FB0021202000F0C6
:106A500005FB22E0B848844208D10121402000F023
:106A6000FDFA0021402000F0F9FA16E0B348844214
:106A700008D10121802000F0F1FA0021802000F0EF
:106A8000EDFA0AE0AE48844207D10121801500F0FA
:106A9000E5FA0021A01500F0E1FA10BD10B50121C2
:106AA000084600F0DBFA0021012000F0D7FA10BD03
:106AB0002DE9F04102460025002600200023002495
:106AC000002791F803C00CF00F0591F803C00CF0FB
:106AD000100CBCF1000F03D091F802C04CEA050580
:106AE00091F800C0BCF1000F31D0146800202BE0F9
:106AF0004FF0010C0CFA00F3B1F800C00CEA0306E9
:106B00009E4220D183004FF00F0C0CFA03F7BC43D8
:106B100005FA03FC4CEA040491F803C0BCF1280F09
:106B200006D14FF0010C0CFA00FCC2F814C00AE0C8
:106B300091F803C0BCF1480F05D14FF0010C0CFADD
:106B400000FCC2F810C0401C0828D1D31460B1F872
:106B500000C0BCF1FF0F34DD546800202EE000F1CE
:106B6000080C4FF0010808FA0CF3B1F800C00CEA69
:106B700003069E4221D183004FF00F0C0CFA03F75D
:106B8000BC4305FA03FC4CEA040491F803C0BCF1D1
:106B9000280F05D100F1080C08FA0CF8C2F814808F
:106BA00091F803C0BCF1480F07D100F1080C4FF079
:106BB000010808FA0CF8C2F81080401C0828CED34F
:106BC0005460BDE8F0814FF6FF71018002218170B1
:106BD0000421C17070470246002093680B400BB13E
:106BE000012000E0002070470146886880B27047AD
:106BF00002460020D3680B400BB1012000E00020CA
:106C000070470146C86880B27047016170474161B2
:106C100070470AB1016100E041617047C16070478F
:106C20004FF480320A4382618161826182698269A4
:106C3000704702460020434B18684FF68073184097
:106C400040EA021008433F4B186070473E49C86154
:106C50007047F0B50A46002300240021002500F00B
:106C60000046B6F1004F02D1364EF16901E0354ED3
:106C70007168C0F3034583B200F44016B6F5401FB7
:106C800008D121F070612F4E766826F070662D4F86
:106C90007E6012E000F48016B6F5801F06D1032650
:106CA00006FA05F4A14341F0706106E0460D360195
:106CB00003FA06F6B14341F0706122B1460D360188
:106CC00003FA06F6314300F00046B6F1004F02D158
:106CD0001C4EF16101E01B4E7160F0BD30B5002229
:106CE0008B071C0F0F2303FA04F2164B08338C108A
:106CF00053F824309343134C08348D1044F8253056
:106D000023468C1053F824308C07240F00FA04F427
:106D100023430C4C08348D1044F8253030BD0A490B
:106D2000DC3108607047000000080140000C0140A1
:106D3000001001400014014000180140001C0140F7
:106D4000002001400000014000002042DF480068B0
:106D500040F00100DD49086008464068DC49084011
:106D6000DA49486008460068DA490840D7490860AF
:106D70000846006820F4802008600846406820F437
:106D8000FE0048604FF41F0088607047CF490968D3
:106D900021F48031CD4A11601146096821F4802127
:106DA0001160B0F5803F03D0B0F5802F0ED106E022
:106DB000C649096841F48031C44A116007E0C349FB
:106DC000096841F4A021C14A116000E000BF00BF82
:106DD000704710B501460022002300204A11012A05
:106DE00002D1BA4C236806E0022A02D1B74C236ACA
:106DF00001E0B64C636A01F01F02012494401C407C
:106E00000CB1012000E0002010BD38B5002000903A
:106E10000024002500BF3120FFF7DBFF0546009866
:106E2000401C00900098B0F5A06F01D0002DF2D06A
:106E30003120FFF7CEFF08B1012400E000242046F6
:106E400038BD01460020A14A106820F0F80040EA51
:106E5000C10010607047A0490860704702460020DA
:106E60009A4B586820F47C1042EA01031843974B70
:106E70005860704798490866704701460020934A59
:106E8000506820F003000843506070478F48406806
:106E900000F00C007047014600208C4A506820F03A
:106EA000F00008435060704701460020874A506850
:106EB00020F4E06008435060704701460020834A98
:106EC000506820F4605040EAC1005060704729B11A
:106ED0007E4A527A02437D4B5A7204E07B4A527AD0
:106EE00082437A4B5A7270477B49D83108607047A9
:106EF00001460020754A506820F440400843506025
:106F000070470021714A20321170704A82F82010B7
:106F1000012802D004280AD104E001216B4A203262
:106F2000117005E00521694A2032117000E000BFB0
:106F300000BF70476949086070476449096A0143A6
:106F4000624A11627047654944390860704730B53C
:106F500000210022002400235C4D6D6805F00C0127
:106F600021B1042905D0082923D105E05C4D056035
:106F700022E05B4D05601FE0544D6D6805F4701212
:106F8000524D6D6805F48034022505EB92421CB920
:106F9000544D554305600BE04C4D6D6805F40035CC
:106FA0001DB1504D5543056002E04D4D5543056000
:106FB00002E04B4D056000BF00BF444D6D6805F019
:106FC000F0010909484D6B5C0568DD4045603F4DA7
:106FD0006D6805F4E061090A434D6B5C4568DD406E
:106FE00085603A4D6D6805F46051C90A3E4D6B5C91
:106FF0004568DD40C560354D6D6805F44041890B3D
:107000003A4D6B5CC568B5FBF3F5056130BD29B140
:107010002E4A526902432D4B5A6104E02B4A5269B1
:1070200082432A4B5A61704729B1284A9269024328
:10703000264B9A6104E0254A92698243234B9A6168
:10704000704729B1214AD2690243204BDA6104E03A
:107050001E4AD26982431D4BDA61704729B11B4A2F
:10706000D2680243194BDA6004E0184AD2688243BE
:10707000164BDA60704729B1144A12690243134B68
:107080001A6104E0114A12698243104B1A61704779
:1070900012494039086070470F49C86470470B496E
:1070A000C87170470948406A40F0807007494862DB
:1070B000704701460020054A92680A400AB1012043
:1070C00000E00020704701498872704700100240BC
:1070D0000000FFF8FFFFF6FE00004242800442423B
:1070E00000127A0000093D0038000020480000200E
:1070F00010B50446FE48844208D10121C014FFF7B0
:10710000ADFF0021E014FFF7A9FFC4E0B4F1804F08
:1071100008D101210846FFF7AEFF00210120FFF74B
:10712000AAFFB8E0F348844208D101210220FFF70A
:10713000A2FF00210220FFF79EFFACE0EE48844250
:1071400008D101210420FFF796FF00210420FFF75A
:1071500092FFA0E0E948844208D101210820FFF70E
:107160008AFF00210820FFF786FF94E0E44884426C
:1071700008D101211020FFF77EFF00211020FFF72A
:107180007AFF88E0DF48844208D101212020FFF700
:1071900072FF00212020FFF76EFF7CE0DA48844276
:1071A00008D101214014FFF759FF00216014FFF7B7
:1071B00055FF70E0D548844209D10121C804FFF78A
:1071C0004DFF00214FF40020FFF748FF63E0D04857
:1071D000844209D101210805FFF740FF00214FF447
:1071E0008010FFF73BFF56E0CA48844209D10121D5
:1071F0004805FFF733FF00214FF40010FFF72EFF83
:1072000049E0C548844208D101214020FFF733FFFF
:1072100000214020FFF72FFF3DE0C048844208D105
:1072200001218020FFF727FF00218020FFF723FFA7
:1072300031E0BB48844208D101218015FFF71BFFD4
:107240000021A015FFF717FF25E0B648844209D1B9
:1072500001210804FFF702FF00214FF48030FFF7FF
:10726000FDFE18E0B048844209D101214804FFF72F
:10727000F5FE00214FF40030FFF7F0FE0BE0AB48C5
:10728000844208D101218804FFF7E8FE00214FF471
:107290008020FFF7E3FE10BD00220288944B984245
:1072A0000ED0994B98420BD0B0F1804F08D0914B43
:1072B000984205D0904B984202D0904B984204D10E
:1072C0004FF68F731A404B881A438D4B984207D064
:1072D0008C4B984204D04FF6FF431A40CB881A4398
:1072E00002808B8883850B880385814B98420BD065
:1072F000854B984208D08B4B984205D08A4B9842D8
:1073000002D08A4B984201D10B7A038601238382F3
:10731000704770B5002400220023058C4FF6FE76DE
:1073200035400584028C8388048B4FF68F752C4082
:10733000B51E2C400D882C43751E2A400D892A430A
:107340004D882A436A4DA8420BD06F4DA84208D001
:10735000744DA84205D0744DA84202D0734DA84286
:1073600013D14FF6F7752A404D892A434FF6FB7526
:107370002A408D882A434FF6FF652B404FF6FF5574
:107380002B408D892B43CD892B4383800483CD886B
:107390008586028470BD70B5002400220023058C10
:1073A0004FF6EF7635400584028C8388048B48F6CF
:1073B000FF752C404FF6FF452C400D884FF6FF76A9
:1073C00006EA05252C434FF6DF752A400D8906EAAB
:1073D00005152A434D8806EA05152A43444DA8425F
:1073E00002D0494DA8421DD14FF67F752A404D89E4
:1073F0004FF6FF7606EA05152A434FF6BF752A4079
:107400008D8806EA05152A434FF6FF352B404FF2CB
:10741000FF752B408D8906EA85052B43CD8906EA49
:1074200085052B4383800483CD880587028470BD46
:1074300070B5002400220023058C4FF6FF6635400E
:107440000584028C8388848B4FF68F752C404FF611
:10745000FC752C400D882C434FF6FF552A400D89B2
:107460004FF6FF7606EA05252A434D8806EA0525EC
:107470002A431F4DA84202D0234DA8421DD14FF2EE
:10748000FF752A404D894FF6FF7606EA05252A4307
:107490004FF6FF352A408D8806EA05252A434EF629
:1074A000FF752B404DF6FF752B408D8906EA0515BB
:1074B0002B43CD8906EA05152B4383808483CD8831
:1074C0008587028470BD70B5002200230024058CDE
:1074D0004EF6FF7635400584038C8488828B48F60F
:1074E000FF752A404FF6FF452A400D8820E0000036
:1074F000002C01400004004000080040000C004047
:10750000001000400014004000340140004C0140D5
:10751000005001400054014000180040001C004091
:10752000002000400040014000440140004801406C
:107530004FF6FF7606EA05252A434DF6FF752B40E8
:107540000D8906EA05352B434D8806EA05352B43A0
:10755000FA4DA84202D0FA4DA84208D14BF6FF7569
:107560002C408D894FF6FF7606EA85152C438480E2
:107570008283CD88A0F84050038470BD828B4FF287
:10758000FF331A408283828B4FF6FF7303EA012395
:107590001A4382837047F0B50C461546002200213D
:1075A0000026078C4EF6FF7C07EA0C070784828BC7
:1075B000018C4FF6FF7707EA043640F6FF473A4062
:1075C0004FF6FF7707EA05273A434FF6FF7707EABA
:1075D00003373A43D94FB8420ED0D94FB8420BD0F7
:1075E000B0F1804F08D0D74FB84205D0D64FB8423F
:1075F00002D0D64FB84206D14DF6FF77394046F457
:107600008057394305E047F6FF57394044F4805727
:10761000394382830184F0BD828B4FF6F3731A40A5
:107620008283828B0A4382837047F0B50C461546ED
:10763000002200210026078C4FF6FF6C07EA0C079A
:107640000784828B018C4FF6FF7707EA04264FF6FA
:107650000C773A404FF6FF7707EA03172F433A4378
:10766000B64FB8420ED0B64FB8420BD0B0F1804FF3
:1076700008D0B44FB84205D0B34FB84202D0B34F90
:10768000B84206D14FF6FF57394046F48077394368
:1076900005E04FF2FF57394044F480773943828345
:1076A0000184F0BD028B4FF2FF331A400283028B3C
:1076B0004FF6FF7303EA01231A4302837047F0B5C4
:1076C0000C461546002200210026078C4FF6EF7C61
:1076D00007EA0C070784028B018C4FF6FF7707EA55
:1076E000041640F6FF473A404FF6FF7707EA0337A4
:1076F0003A434FF6FF7707EA05273A438F4FB842E0
:107700000ED08F4FB8420BD0B0F1804F08D08D4FC4
:10771000B84205D08C4FB84202D08C4FB84206D147
:107720004FF6DF77394046F01007394305E04FF652
:107730005F77394044F01007394302830184F0BD7C
:10774000028B4FF6F3731A400283028B0A430283C3
:107750007047F0B50C46154600220021068C4FF606
:10776000FE773E400684028B018C4FF60C76324049
:107770007E1C06EA03162E433243704EB0420ED0F2
:107780006F4EB0420BD0B0F1804F08D06D4EB0427A
:1077900005D06D4EB04202D06C4EB04206D14FF6CD
:1077A000FD76314044F00106314305E04FF6F576B1
:1077B000314044F00106314302830184F0BD70B5CD
:1077C00005460C465D4885420ED05D4885420BD08B
:1077D000B5F1804F08D05B48854205D05A488542B4
:1077E00002D05A48854200D100E000BF208850B93D
:1077F0002389A28861882846FFF7ABFFE1882846E5
:10780000FFF79EFF25E0208804280AD12389A2885B
:1078100061882846FFF753FFE1882846FFF742FFBB
:1078200017E0208808280AD12389A2886188284681
:10783000FFF7FBFEE1882846FFF7EEFE09E023890B
:10784000A28861882846FFF7A6FEE1882846FFF750
:1078500095FE70BD2DE9F04105460C460026012736
:10786000608808B9022600E00026A088012801D11E
:10787000022700E001272088A0B92389A288618817
:107880002846FFF766FFE1882846FFF759FF23895E
:107890003A4631462846FFF712FFE1882846FFF7AF
:1078A00001FF13E02389A28861882846FFF707FFBC
:1078B000E1882846FFF7F6FE23893A4631462846F6
:1078C000FFF747FFE1882846FFF73AFFBDE8F08160
:1078D0000A884B881A438B881A43CB881A430B8932
:1078E0001A434B891A438B891A43A0F844207047E6
:1078F0004FF6FF71818000210180C18041800172BB
:1079000070470021018041808180C18001814181D7
:107910008181C181704700210180418001218180E6
:107920000021C18001817047002101804180818058
:10793000C18001814181818170470000002C01409C
:10794000003401400004004000080040000C0040EA
:1079500021B1028842F00102028004E002884FF661
:10796000FE731A400280704731B1B0F8442042F4EF
:107970000042A0F8442005E0B0F84420C2F30E0213
:10798000A0F8442070471AB183890B43838102E039
:1079900083898B43838170478182704741EA020368
:1079A000A0F8483070471AB183890B43838102E005
:1079B00083898B438381704701894FF6F8721140A8
:1079C000018170470A46002101894FF68F731940E3
:1079D00011430181704730B504460D4629462046C3
:1079E000FFF7F0FF208940F00700208130BD2DE92E
:1079F000F04104460D4616461F46602D06D13B4613
:107A0000012231462046FFF75AFE05E03B4601229F
:107A100031462046FFF79DFE29462046FFF7D2FF5C
:107A2000208940F007002081BDE8F08130B50C4688
:107A300000210189C9B24FF6FF7505EA03251543F8
:107A400025432943018130BD2DE9F04105460E460D
:107A500017469846002443463A4631462846FFF7E3
:107A6000E5FF2C894FF6F870044044F007044FF608
:107A70008F70044044F070042C81BDE8F081F0B5B3
:107A800004460D4616461F463B46324629462046CA
:107A9000FFF7CCFF208940F480402081F0BD0185B4
:107AA000828270470A46002101884FF68F73194081
:107AB000114301807047F0B50C4615461E46002163
:107AC000002200230189028B038C4FF6F87739409E
:107AD00021434FF6FC473A4040F201173A434FF634
:107AE000DD773B404FF6FF7707EA06172F433B430E
:107AF000018102830384F0BD0A460021018B4FF609
:107B00008F7319401143018370470A460021018B8E
:107B100048F6FF7319404FF6FF7303EA0223194337
:107B2000018370470A460021818B4FF68F731940FD
:107B30001143818370470A460021818B48F6FF7309
:107B400019404FF6FF7303EA0223194381837047FC
:107B500021B1028842F08002028004E002884FF6E0
:107B60007F731A400280704721B1828842F004027C
:107B7000828004E082884FF6FB731A40828070474F
:107B800021B1828842F00802828004E082884FF6A8
:107B9000F7731A408280704721B1828842F0010257
:107BA000828004E082884FF6FE731A40828070471C
:107BB0000A460021018B4FF6F773194011430183E8
:107BC00070470A460021018B4FF2FF7319404FF6B0
:107BD000FF7303EA02231943018370470A46002119
:107BE000818B4FF6F77319401143818370470A4622
:107BF0000021818B4FF2FF7319404FF6FF7303EAA8
:107C000002231943818370470A460021018B4FF6F6
:107C1000FB7319401143018370470A460021018B11
:107C20004FF6FF3319404FF6FF7303EA022319435F
:107C3000018370470A460021818B4FF6FB73194080
:107C40001143818370470A460021818B4FF6FF3331
:107C500019404FF6FF7303EA0223194381837047EB
:107C60000A460021018B4FF67F73194011430183AF
:107C700070470A460021018BC1F30E014FF6FF73D6
:107C800003EA02231943018370470A460021818BCE
:107C90004FF67F7319401143818370470A460021D4
:107CA000818BC1F30E014FF6FF7303EA02231943E0
:107CB000818370470A460021018C4FF6FD731940FD
:107CC0001143018470470A460021018C4FF6F77377
:107CD00019401143018470470A460021018C4FF678
:107CE000DF7319404FF6FF7303EA0213194301844F
:107CF00070470A460021018C4FF67F7319404FF6FA
:107D0000FF7303EA02131943018470470A460021F6
:107D1000018C4FF6FF5319404FF6FF7303EA02231D
:107D20001943018470470A460021018C4FF2FF730A
:107D300019404FF6FF7303EA022319430184704789
:107D40000A460021018C4DF6FF7319404FF6FF7370
:107D500003EA023319430184704730B5002301243C
:107D60008C40A3B2048C9C430484048C02FA01F579
:107D7000ADB22C43048430BD30B5002304248C40C4
:107D8000A3B2048C9C430484048C02FA01F5ADB2C6
:107D90002C43048430BD70B50346002000241846EF
:107DA000183001258D40ACB21D8CA5431D8409B14E
:107DB000082909D100EB6100056825F07005056010
:107DC0000568154305600EE00D1FC5F34E052844F8
:107DD000056825F4E045056005684FF6FF7606EA7C
:107DE00002263543056070BD21B1028842F00202CF
:107DF000028004E002884FF6FD731A40028070474B
:107E000021B1028842F00402028004E002884FF6A9
:107E1000FB731A400280704721B1828842F08002D1
:107E2000828004E082884FF67F731A408280704718
:107E300002884FF6F7731A40028002880A430280D4
:107E4000704782884FF68F731A40828082880A4377
:107E50008280704702894FF6F8731A4002810289C6
:107E60000A430281704702894FF67F731A400281EC
:107E700002890A4302817047818470478185704777
:107E8000818670470187704781877047A0F840104E
:107E9000704702884FF6FF431A40028002880A4367
:107EA000028070470146888E70470146088F7047F0
:107EB0000146888F70470146B1F84000704701467F
:107EC000888C70470146088D704702460020138A4F
:107ED0000B400BB1012000E000207047CA43028232
:107EE000704730B50246002000230024158A05EAB9
:107EF0000103958905EA010413B10CB1012000E0EA
:107F0000002030BDCA4302827047000010B504460D
:107F1000FB48844209D101218803FFF79FF8002123
:107F20004FF48040FFF79AF832E0F648844209D1D6
:107F300001214804FFF79FF800214FF40030FFF7BC
:107F40009AF825E0F048844209D101218804FFF71E
:107F500092F800214FF48020FFF78DF818E0EB48ED
:107F6000844209D10121C804FFF785F800214FF4AC
:107F70000020FFF780F80BE0E548844208D101219A
:107F80000805FFF778F800214FF48010FFF773F829
:107F900010BD2DE9F04786B005460E460024A246E6
:107FA00000BFA1460027B08900B100BF2F462C8A30
:107FB0004CF6FF700440F08804432C82AC894EF6E6
:107FC000F3100440B08831890843718908430443A1
:107FD000AC81AC8A4FF6FF400440B0890443AC82C8
:107FE00001A8FEF7B4FFC648874202D1DDF810A011
:107FF00001E0DDF80CA0A88900F4004040B10AEBD4
:10800000CA0000EB0A1031684900B0FBF1F807E044
:108010000AEBCA0000EB0A1031688900B0FBF1F8E6
:108020006420B8FBF0F004012009642101FB1089F1
:10803000A88900F4004040B1322000EBC900B0FB39
:10804000F1F000F00700044308E0322000EB0910D3
:108050006421B0FBF1F000F00F0004432C8106B066
:10806000BDE8F0874FF41651016000218180C18086
:1080700001810C21418100218181704710B50246A8
:108080000020108A4FF2FF0318400B884C882343CE
:108090008C882343CC8823431843108210BD0021D1
:1080A000018041808180C180704721B1828942F482
:1080B0000052828104E082894DF6FF731A4082816A
:1080C0007047F0B50346002400260025002040F646
:1080D0006A17B94200D100BF1846C1F3421401F03B
:1080E0001F06012707FA06F5012C01D10C3004E028
:1080F000022C01D1103000E014301AB107682F4370
:10810000076002E00768AF430760F0BD1AB1838AD9
:108110000B43838202E0838A8B4383827047028A07
:108120004FF6F0731A400282028A0A4302827047B5
:1081300082894FF2FF731A40828182890A438281C9
:10814000704721B1828942F00202828104E0828973
:108150004FF6FD731A4082817047028A4FF6DF7333
:108160001A400282028A0A430282704721B1028ABF
:1081700042F48042028204E0028A4BF6FF731A4006
:1081800002827047C1F308028280704701468888E6
:10819000C0F308007047818941F001018181704777
:1081A000028BD2B20283028B42EA01220283704721
:1081B000028B02F47F420283028B0A4302837047E0
:1081C00021B1828A42F02002828204E0828A4FF644
:1081D000DF731A408282704721B1828A42F0100216
:1081E000828204E0828A4FF6EF731A4082827047DF
:1081F00021B1828A42F00802828204E0828A4FF62C
:10820000F7731A408282704721B1828942F400429A
:10821000828103E08289C2F30E028281704721B11C
:10822000828A42F40062828204E0828A4FF2FF7303
:108230001A4082827047828A4FF6FB731A4082820C
:10824000828A0A438282704721B1828A42F0020206
:10825000828204E0828A4FF6FD731A408282704760
:1082600002460020B1F5007F00D100BF13880B400B
:108270000BB1012000E00020704701F40072B2F55C
:10828000007F00D100BFCA430280704770B502462C
:10829000002400230025002040F66A16B14200D1D8
:1082A00000BFC1F3421501F01F03012606FA03F3D4
:1082B000012D02D19689334006E0022D02D1168AA3
:1082C000334001E0968A33400C12012606FA04F48A
:1082D0001688344013B10CB1012000E0002070BDBD
:1082E00010B50022002340F66A14A14200D100BF5D
:1082F0000A1201249440A3B2DC43048010BD0000A4
:10830000003801400044004000480040004C00405C
:1083100000500040B848B9494860B94848607047C3
:10832000B648006940F08000B44908617047B3481E
:10833000C16801F0010008B10120704701F004009C
:1083400008B10220F9E701F0100008B10320F4E7BA
:108350000020F2E770B5044600BFFFF7E8FF0546CE
:10836000012D00D006E00120FEF7F5F9601E84B271
:10837000002CF2D100BF04B9FF25284670BD70B5AE
:108380000546002445F6FF70FFF7E4FF0446C4B934
:108390009A48006940F00200984908610846456122
:1083A000006940F04000086145F6FF70FFF7D2FF1A
:1083B0000446012C05D09148006920F002008F4945
:1083C0000861204670BD70B505460E46FF20FFF7D8
:1083D000C1FF044694B98948006940F0010087490B
:1083E00008612E80FF20FFF7B5FF0446012C05D061
:1083F0008248006920F0010080490861204670BD74
:1084000001460888704730B503460C4615460022E1
:1084100007E01846FFF7F4FF24F812009B1C501CDD
:1084200082B2AA42F5DB30BD2DE9F04105460E4689
:108430001746002407E036F814102846FFF7C3FF5C
:10844000AD1C601C84B2BC42F5DBBDE8F0812DE9B7
:10845000F05F80468A461746B8F1006F02D369483C
:10846000804501D3BDE8F09FFFF754FFA8F1006BF2
:108470004FEA9B25CBF34809C9F50074A74200DCFD
:108480003C464DE04FF0006101EB85208A145E49C7
:10849000FFF7B9FF00260BE009EB06005A4931F857
:1084A00010004FF6FF71884200D003E0701C86B2C6
:1084B000A642F1DB00BFA6421BDA4FF0006101EBE0
:1084C0008520FFF75CFF002608E03AF8160006EB6F
:1084D00009014D4A22F81100701C86B2A642F4DB55
:1084E0004FF0006101EB85208A144749FFF79CFF9C
:1084F00004E0224651464046FFF796FFA74200D1CE
:108500000FE06D1C4FF000090AEB440AA044381B31
:1085100087B2B7F5007F02DD4FF4007400E03C46FF
:10852000B0E700BFFFF7FCFE00BF9BE713B50446B2
:10853000012201A92046FFF78AFF1CBD10B54FF4A8
:108540008061324800F074FA4FF400722F493048CD
:10855000FFF759FF10BD30B504460025B4F5806F14
:1085600014D24FF4007229492948FFF74CFF04F058
:10857000010020B96008254911F8105006E0600894
:10858000224931F8100000F47F400512284630BD22
:1085900070B504460D46B4F5806F2CD204F001008E
:1085A00090B96008194931F8100000F47F40610863
:1085B000164A22F811006008114631F810002843CD
:1085C000610822F8110010E06008104911F810004D
:1085D00061080E4A22F811006008114631F81000B7
:1085E00040EA0520610822F811004FF400720749A3
:1085F0000748FFF72CFF70BD2301674500200240AC
:10860000AB89EFCD00000108740A00207406002039
:1086100000FC00082DE9FC4106460F4614461D46A5
:1086200001210846FEF700FD39463046FEF756FBAD
:10863000009400208DF804008DF8055001208DF87D
:1086400006006846FEF754F9BDE8FC81F8B5064619
:108650000C4615468DF800608DF801408DF80250EB
:1086600001208DF803006846FEF7CBF8F8BDF8B599
:1086700006460C4615468DF800608DF801408DF8D1
:10868000025000208DF803006846FEF7BAF8F8BDE6
:10869000F8B506460C46154601213046FEF7C4FCE7
:1086A000ADF8005010208DF8030003208DF8020073
:1086B00069462046FEF7FCF9F8BDF8B506460C46BB
:1086C000154601213046FEF7AFFCADF800504820BA
:1086D0008DF8030003208DF8020069462046FEF75E
:1086E000E7F9F8BD70B505460E46144624B9314683
:1086F0002846FEF78CFA03E031462846FEF785FA55
:1087000070BD70B504460D4629462046FEF763FA53
:1087100070BD2DE9F04389B004460D4616461F464C
:10872000DDE9108901213846FEF78BFC44F0010099
:108730000121FEF779FCADF8206018208DF82300A8
:1087400003208DF8220008A92846FEF7B1F9484613
:1087500002F0AAF880B2ADF818002020ADF814009D
:108760000020ADF81A00ADF8160005A94046FEF746
:1087700093FD6020ADF804000120ADF80600002054
:10878000ADF80C0001A94046FEF7C3FD08214046A4
:10879000FFF70EFA09B0BDE8F08370B505460C4648
:1087A000A1B22846FFF76CFB70BD10B5044600214E
:1087B0002046FFF7CDF810BD10B504460121204634
:1087C000FFF7C6F810BD00001FB501210620FEF717
:1087D00038FC0220ADF804000120ADF808000020AC
:1087E000ADF80A00ADF8060001A95348FEF754FDA4
:1087F000012211465048FFF7C6F801214E48FFF705
:1088000081FB1D208DF8000002208DF8010003205F
:108810008DF8020001208DF803006846FDF7F1FF96
:108820000220ADF804000120ADF808000020ADF8EA
:108830000A00ADF8060001A94048FEF72DFD01220F
:1088400011463E48FFF79FF801213C48FFF75AFBCD
:108850001E208DF8000001208DF8010002208DF807
:10886000020001208DF803006846FDF7CAFF1FBD16
:108870001FB50121C802FEF7D7FB7B20ADF804002D
:10888000ADF808000020ADF80A00ADF8060001A917
:108890002B48FEF701FD012211462948FFF773F826
:1088A00019208DF8000001208DF801008DF80200DC
:1088B0008DF803006846FDF7A4FF1FBD10B5012128
:1088C0001D48FFF745F810BD10B500211A48FFF705
:1088D0003FF810BD70B504460D46A1B201221648FE
:1088E000FFF7DDF8A9B21448FFF7C8FA70BD10B55C
:1088F00001211248FFF72CF810BD10B500210F48D8
:10890000FFF726F810BD70B504460D46A1B201224E
:108910000A48FFF7C4F8A9B20848FFF7AFFA70BDDC
:1089200010B501210648FFF713F810BD10B500215E
:108930000348FFF70DF810BD000400400008004098
:10894000002C014010B586B00446012144F2040019
:10895000FEF76AFB2448FFF7D9FA4FF40070ADF830
:10896000140003208DF8160018208DF8170005A9B3
:108970001E48FEF79DF84FF48060ADF81400032008
:108980008DF8160004208DF8170005A91748FEF78A
:108990008FF801940020ADF80800ADF80A00ADF89A
:1089A0000C00ADF810000C20ADF80E0001A90E4827
:1089B000FFF7EFFA25208DF8000003208DF8010065
:1089C0008DF8020001208DF803006846FDF719FFBD
:1089D000012240F225510448FFF773FB01210248B0
:1089E000FFF763FB06B010BD0038014000080140EE
:1089F0000948804709480047FEE7FEE7FEE7FEE733
:108A0000FEE7FEE7FEE7FEE7FEE7FEE7044805496E
:108A1000054A064B7047000023030008ED000008DC
:108A2000D80E0020D8140020D8100020D810002024
:108A30004FF000020429C0F0128010F0030C00F087
:108A40001B80CCF1040CBCF1020F18BF00F8012B05
:108A5000A8BF20F8022BA1EB0C0100F00DB85FEAD3
:108A6000C17C24BF00F8012B00F8012B48BF00F89F
:108A7000012B70474FF0000200B51346944696460E
:108A8000203922BFA0E80C50A0E80C50B1F1200121
:108A9000BFF4F7AF090728BFA0E80C5048BF0CC0CF
:108AA0005DF804EB890028BF40F8042B08BF70472D
:108AB00048BF20F8022B11F0804F18BF00F8012B9F
:108AC000704770477047704710B500F009F80068AC
:108AD00010BD10B5044600F003F8046010BD00009E
:108AE00000487047740E002000487047740E002044
:108AF0007546FFF7F9FFAE4605006946534620F07C
:108B00000700854618B020B5FFF780FFBDE820407C
:108B10004FF000064FF000074FF000084FF0000B39
:108B200021F00701AC46ACE8C009ACE8C009ACE8EC
:108B3000C009ACE8C0098D4670470446AFF3008019
:108B40002046F7F71AFB000001491820ABBEFEE7EC
:108B5000260002007047490050EAC12018BF0420D7
:108B60004A0D18BF40F0010040F2FF72B2EB515FB6
:108B700008BF40F00200012808BF05207047000030
:108B80002DE9F74F144694B00021C4E9021115995C
:108B9000079121F00045C9498D4206DC1599C4E9C9
:108BA000000117B00020BDE8F08FC549DFF814A31D
:108BB000A9423CDD0799C44E0029C44FC44A159907
:108BC000534619DD01F0DAFB554506D0C14AC24BC8
:108BD00001F0D4FBC4E900010AE04FF0D352BE4BD0
:108BE00001F0CCFB32463B4601F0C8FBC4E9000172
:108BF00017B00120BDE8F08F00F086FE554506D085
:108C0000B44AB54B00F080FEC4E900010AE04FF021
:108C1000D352B14B00F078FE32463B4600F074FE72
:108C2000C4E9000117B04FF0FF30BDE8F08FAB4949
:108C3000A942159978DB21F0004183468846A84A6D
:108C4000A84B01F075F90022A74B00F05DFE01F082
:108C5000ABF8099001F005F906460F469C4A5346C9
:108C600001F066F943465A4601F096FA80468A4674
:108C7000984A994B3046394601F05AF92A0D012598
:108C80000B924246534601F087FA032DC4E90001D6
:108C900039D00B98C1F30A51401A05EB451111392F
:108CA000814230DA9148C346784400EB0510CDF894
:108CB0000CA00C90D0E900233046394601F038F979
:108CC00002460B46049106905846039901F056FB64
:108CD00080468A4602460B465846039901F04EFBF1
:108CE000049B069A01F04AFB83460C98039139468F
:108CF000D0E90223304601F01BF95A46039B01F0EC
:108D00003DFB6D1CBDE707980028A2BF099817B06E
:108D1000BDE8F08F616881F000416160099817B08B
:108D20004042BDE8F08FFFE784461598C1F3130178
:108D3000C0F30A50A0F2F5304FEA601800F01F06A9
:108D4000C6F12000139000200690079041F4801E89
:108D500005206D4676B1664A08EB00017A4452F868
:108D6000213002EB8101B3404A68139922FA01F1E4
:108D7000194305E05F4908EB0002794451F82210DD
:108D8000A1FB0E27A1FB0C131A449A4234BF012306
:108D9000002303EB070A05EB8003D3E901B70F4477
:108DA0008F4234BF0121002193448B4411B193457C
:108DB00002D903E0934501D2012100E00021C3E97B
:108DC00001B7514445F82010011EA0F10100C1DC9B
:108DD0000298059F00F10050800F12900298DDE983
:108DE0000356800001F03DF8834628460D9101F0BE
:108DF0004FF86FF01D0201F086FFCDE90E013046FD
:108E000001F046F86FF03D0201F07DFF80468A4692
:108E1000384601F03DF86FF05D0201F074FF07463F
:108E200042465346119100F06FFDDDE90E2300F03C
:108E30006BFD5A460D9B00F067FD00250E465A4615
:108E400028460D9B01F09AFADDE90E2301F096FA0F
:108E50004246534601F092FA3A46119B01F09CF9C2
:108E6000DFF898A0244A534601F062F80746884686
:108E7000234A244B3146284601F05AF83A464346E5
:108E800000F042FD074688464FF0A842534631465F
:108E9000284601F04DF83A46434600F035FD159A54
:108EA00012F0004F04D0129A81F000415242129207
:108EB000C4E90001129817B0BDE8F08FFB21E93F2B
:108EC0007CD90240FB21F93F7370032E8A19A33B22
:108ED000000040543163621A61B4D03DFB21394136
:108EE00083C8C96D305FE43F0000E03FBC21000053
:108EF000382100001A210000182D4454FB21F93DAF
:108F00003326A611460B113C2DE9FF4D21F00048F8
:108F100007460C46B8F1795F08DA00F045FF0028F3
:108F200001BF0020324904B0BDE8F08D3A46234627
:108F30001046194600F0FCFF054602462D480E4635
:108F40000B460621784400F05DF82A46334600F0CF
:108F5000EFFFDDE9022382468B463846214600F0CA
:108F6000E7FF04460F4652465B462846314600F06E
:108F7000DFFF22463B4601F001FA07468A464FF0E2
:108F8000FF322846314601F0BEFE1B4A90450ADA00
:108F90003A46534601F0F2F904B00022BDE8F04D24
:108FA000134B01F0F9B8154A4245A8BFA8F50015C2
:108FB0004FF00004B8BF124D22462B4601F0DEF9F7
:108FC0000646884622462B460020094901F0D6F97C
:108FD00004460D463A4653463046414601F0CEF926
:108FE00004B022462B46BDE8F04D01F0D5B8000094
:108FF0000000F03FE81E00003333D33F0000E93F9C
:109000000000D23F2DE9F0414F1E00EBC70104469E
:10901000D1E9000115461E4637F006020DD02A465A
:10902000334600F085FF7F1E04EBC703D3E900231E
:1090300000F06AFC37F00602F1D1022F25D0042F90
:1090400013D0062F18BFBDE8F0812A46334600F042
:109050006FFFD4E90A2300F057FC2A46334600F09C
:1090600067FFD4E9082300F04FFC2A46334600F09E
:109070005FFFD4E9062300F047FC2A46334600F0A0
:1090800057FFD4E9042300F03FFC2A46334600F0A2
:109090004FFFD4E9022300F037FC2A46334600F0A4
:1090A00047FFD4E90023BDE8F04100F02DBC0000EB
:1090B0002DE9FF4D054621F0004084B00C46B0F18B
:1090C000795F0BDA2846FFF746FD042808BF00F059
:1090D00071F8284608B02146BDE8F08D2A460B46B7
:1090E000104600F025FF06460F462A46234600F0AC
:1090F0001FFF804626488A4632463B460521784473
:10910000FFF780FF83461098029160B3214A224BFB
:109110004046514600F00CFFCDE900015A4640465A
:109120005146029B00F004FF82468846DDE90601B5
:109130004FF0FF3201F0E7FD5246434601F01EF9C1
:1091400032463B4600F0F4FEDDE9062301F016F955
:10915000DDE9002301F012F908B02A462346BDE8F4
:10916000F04D01F019B80B465A463046394600F02A
:10917000DFFE084A084B00F0C7FB4246534600F0AA
:10918000D7FE08B02A462346BDE8F04D00F0BCBB30
:109190002E1E0000495555555555C5BF012201F0F9
:1091A000B2BD00F0B1BB002213461046114600F0DC
:1091B00067BC0000024A0020110701F0A4BD0000B6
:1091C00001FDFFFF2DE9F84F04460D4621F0004058
:1091D00000917349814211DC7249884201DC06D159
:1091E0002CB120462946BDE8F84FFFF7D7BF6E489F
:1091F000002DCCBF6D496E49BDE8F88F6D498142A5
:1092000011DD6D498142D8BF4FF0FF366DDD20463C
:109210002946FFF7A0FC042808BFFFF7CBFF204634
:109220002946BDE8F88F6549654F25F00045814224
:1092300033DD6449814219DD002632464FF0804318
:109240002046294600F060FB80468A4601222046DF
:10925000294601F058FD00223B4601F08FF84246B6
:10926000534600F00DFC04460D463EE00126002268
:10927000BA463B462046294600F046FB80460F464C
:10928000002253462046294601F078F842463B46E4
:1092900000F0F6FB04460D4627E04B4981421BDDFA
:1092A000DFF828A10226002253462046294600F076
:1092B0003FFE00223B4600F027FB80460F4600227F
:1092C00053462046294601F059F842463B4600F0F5
:1092D000D7FB04460D4608E0032622462B46002015
:1092E0003B4900F0CDFB04460D4622462B46104676
:1092F000194600F01DFE8B46824602460B4600F0E2
:1093000017FE07460246334888460B460621784436
:10931000FFF778FE52465B4600F00AFE82462E4872
:109320008B463A46434605217844FFF76BFE3A46A2
:10933000434600F0FDFD02460B46002E50465946BE
:109340000CDA00F0E1FA22462B4600F0F1FD01B004
:1093500022462B46BDE8F04F00F01EBF00F0D4FAC5
:1093600022462B4600F0E4FD1C4A7A4402EBC60379
:10937000D3E9002301F002F822462B4600F0FEFF5D
:10938000174A7A4402EBC603D3E9002300F004FF36
:10939000009A002AB8BF81F00041BDE8F88F0000B4
:1093A000000010440000F07F182D4454FB21F93FC9
:1093B000FB21F9BF0000DC3F0000203E0000F33F2E
:1093C0000000F03F0000E63F008003400000F83F4F
:1093D0000000F0BFEE1A0000AC1A00004A1A0000AC
:1093E000121A00002DE9F04D9446CCF1000423F050
:1093F00000464CEA0404524F46EAD4749A46884622
:1094000021F00042BC4206D8454240EA050442EA47
:10941000D474BC4204D9BDE8F04D6246FFF7C1BE2A
:10942000AAF14055A5F17F6555EA0C040BD0022442
:1094300004EAAA74434DDFF810E144EAD87452EA12
:10944000000B04D00CE0BDE8F04DFFF7BBBE002CD4
:1094500014BF012CBDE8F08D022C30D0032C32D08B
:1094600056EA0C0B0AD0BE4220D1BA4209D126F0EE
:10947000804622F080423346114617E000291ADB6D
:1094800025E0DFF8C8B0FB44002C04BFDBE9000195
:10949000BDE8F08D012C02BFDBE9000181F0004145
:1094A000BDE8F08D022C0AD0032C0CD0BA4212D1A8
:1094B000B8F1000F0BDA23482549BDE8F08D2846A6
:1094C0002449BDE8F08D28467146BDE8F08D1D4861
:1094D0002149BDE8F08D921B12153C2AC4BF1948E2
:1094E0001D490EDCBAF1000FBEBF12F13C0F002087
:1094F000014606DB624600F0C3FA21F00041FFF7A7
:1095000061FE002C08BFBDE8F08D012C04BF81F086
:109510000041BDE8F08D114A114B022C07D000F03C
:109520002DFF2A46BDE8F04D0A4B00F027BF00F0A2
:1095300025FF2A46BDE8F04D064B00F02DBE000089
:109540000000F07F182D4454FB2109C0D6190000FB
:10955000FB21F9BFFB210940FB21F93F075C1433D4
:1095600026A6A13C2DE9F041C1F30A52A2F2FF3632
:109570002F4A304B0D460446142E2FDA002E12DAF5
:1095800000F0C2F90022134600F0D0FD4CD2002DAD
:10959000BCBF4FF00045002446DB55EA040018BF6D
:1095A000254D19D140E0DFF894C02CFA06F705EA02
:1095B000070C5CEA040C08BFBDE8F08100F0A4F9D8
:1095C0000022134600F0B2FD2ED2002D03DD4FF431
:1095D0008010F0400544BD43002425E0332EC8BF71
:1095E000BDE8F081A6F1140C4FF0FF3727FA0CF715
:1095F0003C4208BFBDE8F08100F0CEFD00221346DA
:1096000000F094FD10D2002D0DDD142E08BF6D1C4E
:1096100009D0C6F13400012101FA00F02044A04233
:1096200038BF6D1C0446BC4329462046BDE8F08186
:109630009C7500883CE4377E0000F03FFFFF0F0080
:1096400000B5244B21F0004287B09A42DCBF0022D3
:10965000134629DD204B9A4208D140B94FF0010052
:10966000FFF737FAFFF79FFD07B000BD03DBFFF7F9
:1096700095FD07B000BD02AAFFF782FA10F00301C2
:1096800004BF0DF1080C9CE80F000DD0012001294A
:109690000ED0022914D00DF1080C00909CE80F00A8
:1096A000FFF706FD07B000BDFFF72EFC07B000BDB9
:1096B0000DF1080C00909CE80F00FFF7F9FC05E0A5
:1096C0000DF1080C9CE80F00FFF71EFC07B081F0BD
:1096D000004100BDFB21E93F0000F07F2DE9F04192
:1096E000C1F30A52A2F2FF362F4A304B0D46044610
:1096F000142E2FDA002E12DA00F006F9002213469B
:1097000000F014FD4CD2002DA4BF0024254647DAFA
:1097100025F00040204318BF254D41D018E0DFF868
:1097200094C02CFA06F705EA070C5CEA040C08BFA3
:10973000BDE8F08100F0E8F80022134600F0F6FCE6
:109740002ED2002D03DA4FF48010F0400544BD43C3
:10975000002425E0332EC8BFBDE8F081A6F1140C2B
:109760004FF0FF3727FA0CF73C4208BFBDE8F08105
:1097700000F012FD0022134600F0D8FC10D2002D9C
:109780000DDA142E08BF6D1C09D0C6F1340001217A
:1097900001FA00F02044A04238BF6D1C0446BC43CF
:1097A00029462046BDE8F0819C7500883CE4377E60
:1097B0000000F0BFFFFF0F0000B5254B21F0004275
:1097C00087B09A4203DC0022134600922BE0214B23
:1097D0009A4208D140B94FF00100FFF77AF9FFF73C
:1097E000E2FC07B000BD03DBFFF7D8FC07B000BD0B
:1097F00002AAFFF7C5F910F003014FF001000DD0E8
:10980000012914D002291AD00DF1080C9CE80F0090
:10981000FFF77AFB07B081F0004100BD0DF1080CA5
:1098200000909CE80F00FFF743FC07B000BD0DF16E
:10983000080C9CE80F00FFF767FB07B000BD0DF1B7
:10984000080C00909CE80F00FFF732FCE2E70000F4
:10985000FB21E93F0000F07F2DE9F04106460F466D
:1098600000F0A6FC04000D4618BF0120284320F09C
:109870000040C0F17F6000F1E040C00F0ED0301C0E
:1098800018BF0120384320F00040C0F17F6000F194
:10989000E040C00F04BF0120FFF71BF92046294616
:1098A000BDE8F08121F00042A2F16052B2F5801FC4
:1098B00001F0004328BFD2F17F6C0BD95FEA001C96
:1098C00043EAC20242EB507018BF704728BF20F035
:1098D00001007047B2F5801FBCBF184670474FEAC1
:1098E000410C1CF5001F02D2084601F024B970B5E6
:1098F00000F0C8FB00000089FFF7F6BF4FF0004002
:10990000A0F580007047000010B591EA030F48BF32
:1099100083F0004300F13A85841A71EB030C05D201
:10992000121943EB0C03001B61EB0C01DFF824E17F
:109930004FEA1154A4EB135C1EEA430F18BF9EEAD2
:10994000445F73D023EA0E03DCF1200E21EA0451B8
:1099500043F4801332D322FA0CFE10EB0E0023FAEC
:109960000CFE41EB0E01CCF1200E03FA0EFE10EBC3
:109970000E0051F10001B1F5801FCCF1200E32D262
:1099800001EB045112FA0EF2BDE8104058BF7047C7
:10999000401C38BF5FEA420218BF7047002814BF5E
:1099A00020F0010041F100014FEA410313F5001FCF
:1099B00038BF7047A1F1C04100F0B2BB012A43EBB0
:1099C0000302ACF1200CDCF11F0E32BF4FF0000E91
:1099D00023FA0CF310EB030041EB0451B4EB115FDD
:1099E000D0D0A1EB045101F5801149085FEA3000A5
:1099F00001EB04510ED350F1000038BF12FA0EFEF5
:109A000008D1BDE81040C9E7401C38BF5FEA4202F8
:109A1000CAD1C3E7BDE810404FEA410313F5001F68
:109A200038BF7047A1F1C04100F07ABB9EEA445FA5
:109A300008D011EA5E0FBDE8104004BF01F00041FC
:109A400000207047BDE8104070B500F01BFB00BF60
:109A500064FBBE3E0000E0FF02494FF0000001F051
:109A600020B900BF0000F87F491058BFC1F1404144
:109A70005B1058BFC3F140438B42EFF30080704747
:109A80002DE9C04130B4DFF8A0C23CEA111418BF80
:109A90003CEA131400F0EC8081EA03051CEA11147F
:109AA00044EAD57418BF1CEA131500F0C780A4EB74
:109AB00005044FF0004545EAC12145EAC32341EAC8
:109AC000505143EA525304F17F74994204F5003433
:109AD0004FEAC0204FEAC22208BF904200F09C80AB
:109AE0004FEA13650FF24016765D4FEA134506FB09
:109AF00005F7C7F1807706FB07F74FEAD737A7FBD3
:109B000003687642C8F58038A7FB06CE38BFA8F1B7
:109B1000010807FB08E64FF0000EA6FB028CE6FBEF
:109B200003CEDCF1000CCEF1004E38BFAEF1010ED9
:109B3000A6FB0C584FF000074FF00005E6FB0E8720
:109B4000A1FB08C6A0FB07CE16EB0E0645F10005EB
:109B5000E1FB076515F1E04E7EBFA4F580345FEAB6
:109B600046066D4116F1800745F100054FEA1727BB
:109B70004FEA066647EA0567A6F1DE46B6F1805F62
:109B80004FEA15251FD9384624F0010C05EBC471A6
:109B9000BCF1FE6F01EB0C1102D8F0BCBDE80081F6
:109BA00024425CBF01F5801E9EEAC47F02D4F0BC53
:109BB000BDE80081244238D4F0BCA1F1C041BDE829
:109BC000004100F0ADBA4FEAD22242EA43524FEAD6
:109BD000D323A7FB02864FEAD02040EA415007FB7F
:109BE00003661EEA0E0F4FEAD12105FB026658BF3D
:109BF000A6EB0056B6EB00564FEA520E4EEAC37E75
:109C000018EB0E0E56EB530EBDD518EB02085E4155
:109C10007F1C55F10005B6E74FF480154FF00007A3
:109C20004FF000064FF00008ADE7F0BC4FF0000029
:109C300001F1C04101F00041BDE8008111EA0C1FB3
:109C40000CEA131500D00CE013EA0C1F00F025807D
:109C50004FF00000F0BC81EA030101F00041BDE8D3
:109C60000081F0BCBDE8004181EA030100F058BA70
:109C7000F0BCBDE8004170B500F004FA097EFC3E7E
:109C800000F007B881EA03014FF0000001F0004145
:109C9000704781EA030100F043BAF0BCBDE800411F
:109CA0004FF0000021497047FFFDFBF9F7F5F4F292
:109CB000F0EEEDEBE9E8E6E4E3E1E0DEDDDBDAD867
:109CC000D7D5D4D3D1D0CFCDCCCBCAC8C7C6C5C4C5
:109CD000C2C1C0BFBEBDBCBBBAB9B8B7B6B5B4B3DC
:109CE000B2B1B0AFAEADACABAAA9A8A8A7A6A5A4C7
:109CF000A3A3A2A1A09F9F9E9D9C9C9B9A9999988B
:109D00009797969595949393929191908F8F8E8E2D
:109D10008D8C8C8B8B8A89898888878786858584BA
:109D200084838382828181800000FF070000F87FA6
:109D300051EA030C17D41CF5801F58BFBCF5801FD7
:109D400000F10680994218BF704708BF90427047E3
:109D500007D711F5801F58BF13F5801F19D49942FA
:109D60007047894270471CF5801F08D5BCF5801FDD
:109D7000F7D58B4218BF704708BF824270474FF437
:109D8000001C1CEB410F38BF1CEB430F01D28B4270
:109D9000704770B500F076F9922449004FF00051F9
:109DA0004FF08053FFF760BE4FEA41034FEA535331
:109DB000A3F58063D3F11E03C8BFD3F1210C0CDDE2
:109DC0004FF0004242EAC12242EA505232FA03FC0A
:109DD0008CEAE17CACEBE1707047102BC4BF002033
:109DE000704703F5787CBCF1FF3F04D06FF0004270
:109DF00082EA2100704770B500F044F9499224804E
:109E000000207047F2E700004FEA1153A3F580638A
:109E1000D3F11E03A8BFD3F1200C08DB4FF00042A2
:109E200042EAC12252EA505232FA03F07047094224
:109E30000BD4102BC4BF0020704703F5787CBCF115
:109E4000FF3F05D04FF0FF3070474FF000007047E4
:109E500070B500F017F900BF4992248000207047C8
:109E6000F0E710F0004248BF4042B0FA80F310FA29
:109E700003F10AD0C3F11D0303F580634FEA41509B
:109E800002EB035202EBD12170474FF00000704704
:109E9000B0FA80F310FA03F10AD0C3F11D0303F501
:109EA00080634FEA41504FEA035202EBD1217047E1
:109EB0004FF000007047000051EA030C17D41CF566
:109EC000801F58BFBCF5801F00F10680994218BF63
:109ED000704708BF9042704707D711F5801F58BFE1
:109EE00013F5801F19D499427047894270471CF5B9
:109EF000801F08D5BCF5801FF7D58B4218BF70476F
:109F000008BF824270474FF4001C1CEB410F38BF62
:109F10001CEB430F01D28B42704770B500F0B2F8D2
:109F2000922449004FF000514FF08053FFF79CBD41
:109F3000DFF848C170B51CEA111E1EBF1CEA1315DC
:109F40009EEA0C0F95EA0C0F00F06F8081EA030483
:109F500023EA4C134EEAD47E21EA4C1141F48011DD
:109F600043F48013AE44A1FB024CA0FB0365AEF1A9
:109F70007F7E361955EB0C05A1FB034C4CF1000319
:109F8000A0FB021C16EB0C06654153F100030942CD
:109F900018BF46F0010613F4007F0BD14FEA0331DE
:109FA0004FEA0530340341EA155140EA16506FF08C
:109FB00003020AE04FEAC3214FEAC520F40241EA56
:109FC000555140EA56506FF0020202EB2E4201EB6F
:109FD000025585EACE710AD05FEA440C18BF24F01E
:109FE000004450F1000041F1000120EAD47040F239
:109FF000FE7C624500D270BDA84214BF4FF0804481
:10A000004FF04044002E08BF0024BEF1806FA8BF6F
:10A01000A1F1C041BDE8704080F282804FF00000A5
:10A0200001F1C04101F0004170479EEA0C0F0CEABB
:10A03000131518BF95EA0C0F06D04FF0000081EA07
:10A04000030E0EF0004170BD00F01CF88900013EC7
:10A0500000F007B800F009B84FEA430C5FEA5C5C17
:10A0600008D081EA030100F05BB84FEA410C5FEAD7
:10A070005C5CF6D14FF00000014970470000FF071B
:10A080000000F87F0EF1020E2EF0030E5EF8046B56
:10A09000364205D4012A43EB030515F5001F12D8FB
:10A0A000012841EB010C1CF5001F0CD80ED14FEA22
:10A0B000D17C15F5001F0CEB4C0C0CF1020C08BF09
:10A0C0004CEBD37C04E04FF0080C01E04FEAD37C6A
:10A0D0000CEB4C0526FA05F606F00706B6F1040C63
:10A0E00006D20EEB860CBDE870404CF0010C6047C8
:10A0F000DFE80CF0090B02024FF000414FF00000C6
:10A10000A1F5002170BD19461046012851EB01044C
:10A1100018BFD4F5001484BF002001F0004170BDC9
:10A120000808A0F500114FEA3101704753EA010C0D
:10A1300017D41CF5801F58BFBCF5801F00F10680A6
:10A140008B4218BF704708BF8242704707D713F58C
:10A15000801F58BF11F5801F19D48B4270479B4256
:10A1600070471CF5801F08D5BCF5801FF7D59942B4
:10A1700018BF704708BF904270474FF4001C1CEB9B
:10A18000430F38BF1CEB410F01D2994270470FB407
:10A190000CBC03BCFFF7C1BE91EA030F10B581F000
:10A1A00000413FF5B9AB83F0004300F0EFB8000089
:10A1B0002DE9F04101F5801CBCF5001FC0F2C38001
:10A1C0004FEA115C21EA0C510CF1FD0C41F48011B5
:10A1D0005FEA5C0C0CF5C07C01D3400049413DA412
:10A1E000890241EA905187028E0E0A0CA45D04FB9D
:10A1F00004F602FB06F6C6F14046A4FB0662F60D25
:10A2000046EA422606FB06F4A4FB01235242C3F1B0
:10A21000404338BF5B1EA6FB02420024E6FB03243A
:10A22000D20B42EA4446A6FB0623A1FB02E2A3FBB3
:10A2300007E4A4184FF0000252F10002E3FB0142D0
:10A240006442C2F1404E38BFAEF1010EA6FB0423BA
:10A250004FF00002E6FB0E32A2FB03464FF0000473
:10A26000B61954F10004E2FB0264A1FB06E6A4FB6C
:10A2700007E816EB08064FF0000858F10008E4FB69
:10A2800001687642C8F1405838BFA8F10108A2FB26
:10A2900006E4A3FB08E52D194FF0000454F1000477
:10A2A000E2FB0854A1FB05E6A7FB04E818EB06084F
:10A2B0004FF0000656F10006E1FB048618F1200578
:10A2C00056F10006A809A8F11B08B10908F03F08DB
:10A2D000B8F10A0F40EA86601CD901EB0C51BDE8C9
:10A2E000F08100BFFCF5EEE8E2DDD8D3CFCBC7C3E9
:10A2F000C0BDB9B6B4B1AEACA9A7A5A3A19F9D9BA3
:10A300009A9896959392908F8D8C8B898887868565
:10A3100084838281A0FB006800FB01F208EB420805
:10A32000B8EB872807D5341858EB0104D5D5401C65
:10A3300051F10001D1E7341A78EB0104CDD4401E6D
:10A3400071F10001C9E75FEA4C0C5FEA9C5C0DD13A
:10A3500005D34FF0000001F00041BDE8F081BDE8F9
:10A36000F04170B5FFF78EFE6DDBFFBEBDE8F0413A
:10A370004FF00000004970470000F87F10B591EAE7
:10A38000030F48BF83F000433FF5C6AA841A71EB60
:10A39000030C07D212198CF0004C43EB0C03001B8A
:10A3A00061EB0C01DFF8A4E14FEA1154A4EB135C5C
:10A3B0001EEA430F18BF9EEA445F00F0B08023EA14
:10A3C0006E03524221EA0451C3EB6E0338BF5B1E99
:10A3D000DCF1200E25D322FA0CFE10EB0E0043FA1E
:10A3E0000CFE41EB0E01CCF1200E03FA0EFE10EB39
:10A3F0000E0051F10001CCF1200E29D412FA0EF218
:10A4000001EB0451BDE8104058BF7047401C1CBF11
:10A41000B2F1004F704700280CBF491C20F001002A
:10A42000704712EB020E43EB030218BF4FF0010E10
:10A430004EEA4202ACF1200CDCF11E0E54D943FA74
:10A440000CFE10EB0E0051F1FF31CCF11E0ED5D5F4
:10A450000EF1010E12FA0EFE404141EB010101EB3B
:10A46000445C5FEA5C5C10D910EBDE7001EB0451D8
:10A4700038BFBEF1004FBDE8104018BF704700283C
:10A480000CBF491C20F00100704730D24FEAD42C99
:10A4900011F5001124F400641BD0B1FA81F20B3ADB
:10A4A000A41AA41ED2F12003914030FA03F31943F9
:10A4B000904001EBCC71002C01EB0451BDE8104041
:10A4C000A8BF704701F1C0414FF0000001F000410A
:10A4D0007047B0FA80F310FA03F100D110BDE41A0E
:10A4E000173C4805C90AE4E701EB045110BD4910C7
:10A4F00001EB0451BDE810404FEA300002E04FF09C
:10A50000000170474A0008BF0042F8D0B2F5001FB2
:10A5100028BF704701F000414FF0000070479EEAED
:10A52000445F07D011EA5E0FBDE8104004BF002170
:10A5300000207047BDE8104070B5FFF7A3FD00BFD5
:10A5400040DFF63E83F00041104670470000E0FF18
:10A5500043004FEAD30C4FEA3C0C43401FBF400777
:10A560000CF1605113F0FE4F70471CF0006F03D1E7
:10A5700000200CF0004170470CF0004343EA50709B
:10A5800010B540EACC0000F090FA00BF0000009245
:10A590004FEA0001FFF7C4BD4FF000414FF000004B
:10A5A000A1F500217047000090EA010F48BF81F03B
:10A5B000004100F10883421A3CBF801A89184FEA13
:10A5C000D0524FF07F4C1CEA410FA2EBD15318BF81
:10A5D0009CEA026F00F03B804FF0004C4CEA0020F8
:10A5E0004CEA012121FA03FC10EB0C0C1ED202F103
:10A5F000FF325FEA1C2040EBC25038BF70471CF0AE
:10A600007F0F4FEA400C18BFBCF17F4F38BF704737
:10A61000C3F12003994008BF20F00100BCF17F4F37
:10A6200038BF7047A0F1C04000F085BA4FEA3C0047
:10A63000000A40EBC25028BF1CF0FF0F4FEA400C4D
:10A64000E6D018BFBCF17F4F38BF7047EAE79CEAFD
:10A65000026F05D010EA5C0F08BF00F000407047A1
:10A6600010B500F022FA00BF64FBBE3E401058BF98
:10A67000C0F14040491058BFC1F140418142EFF361
:10A68000008070474FF47F0C1CEAD0121EBF1CEAFA
:10A69000D11392EA0C0F93EA0C0F00F0858090EA38
:10A6A000010F48BF42F4807240F4000C41F40000F6
:10A6B0002CF07F4120F07F4000B58142A2EB0302E5
:10A6C0000FF2081CACEB504EC0F100009EF800E009
:10A6D0004FEA4E0E00FB0EFC38BF49004FEA2C1C1F
:10A6E00002F5FA020CFB0EF34FEACE1E4FEA112CD4
:10A6F0004FEAC1210EEB635E42EB22420EFB0CFCE3
:10A700004FEA1C5300FB03114FEA112C4FEA0131B1
:10A710000EFB0CFC4FEADC4C00FB0C11C14228BFC5
:10A7200009184CEB03335DF804EB10EB410143EBEC
:10A73000C250B2F57C0F38BF704729D512F0F00F28
:10A740001CBF00F1C04000F00040704700818283D0
:10A750008485868788898B8C8D8E8F919293959630
:10A7600097999A9C9D9FA0A2A3A5A7A8AAACAEB0BA
:10A77000B2B3B5B7B9BCBEC0C2C5C7C9CCCED1D4BF
:10A78000D7D9DCDFE2E6E9ECF0F3F7FAFE000000EF
:10A790004FEA400C0CF1807CBCF17E4F28BF704723
:10A7A000B0F1C04000F0C7B990EA010F0CEAD11334
:10A7B00048BF42F48072624538BF634507D213F444
:10A7C0007F0F16D080EA010000F00040704710B5FE
:10A7D00000F06BF9097EFC3E00F005B880EA01004C
:10A7E00000F00040704780EA010000F0004000F0F7
:10A7F000A2B912F47F0F04BF0248704780EA01003B
:10A8000000F099B90000C07F50EA010C00F11380FC
:10A810001CF5000F58BFBCF5000F01D488427047EB
:10A8200007D710F5000F58BF11F5000F15D4884257
:10A830007047894270471CF5000F04D5BCF5000F26
:10A84000F7D5814270474FF0807C1CEB400F38BF3A
:10A850001CEB410F01D28142704710B500F025F981
:10A86000922449004FF000504FF08051FFF7FEBE98
:10A8700041000B0ED3F19E0208D950F400034FEAB9
:10A88000032323FA02F048BF4042704710B500F09E
:10A890000CF900BF49922480002070476FF00042FD
:10A8A00082EA200070470000C10DD1F19E0206DB54
:10A8B0004FEA002343F0004323FA02F070470042BE
:10A8C00007D54FEA4001B1F1FE4F02D24FF0000030
:10A8D000704710B500F0E9F84992248000207047D5
:10A8E0006FEA20007047000010F0004148BF40426E
:10A8F000B0FA80F310FA03F2C3F19D030BD051EAD2
:10A90000C35101EB1220530638BF704700F101001C
:10A9100008BF20F001007047B0FA80F310FA03F28C
:10A92000C3F19D030AD0D90501EB1220530638BFAD
:10A93000704700F1010008BF20F0010070470000DF
:10A9400050EA010C00F113801CF5000F58BFBCF554
:10A95000000F01D48842704707D710F5000F58BF89
:10A9600011F5000F15D488427047894270471CF5D5
:10A97000000F04D5BCF5000FF7D5814270474FF0AA
:10A98000807C1CEB400F38BF1CEB410F01D2814291
:10A99000704710B500F089F8922449004FF000503C
:10A9A0004FF08051FFF762BE4FF47F0C1CEAD012CB
:10A9B0001EBF1CEAD11392EA0C0F93EA0C0F00F0B1
:10A9C000478090EA010F48BF42F480724FF0004C7C
:10A9D0004CEA00204CEA012102EB0302A0FB011328
:10A9E000A2F50002002918BF43F001035B0028BF55
:10A9F0004FEA330342EB22425FEA132C4CEBC25086
:10AA00002EBFBCEB436FB2F57C0F70474FEA036C6F
:10AA1000BCF1004F08BF20F00100B2F57C0F38BF39
:10AA200070470BD582F0FF0212F5803FC8BF704718
:10AA300000F1C040D8BF00F00040704700F5000CA6
:10AA40005FEA4C0C48BF7047B0F1C04000F073B8EB
:10AA500090EA010F0CEAD11348BF42F480726245BC
:10AA600038BF634504D280EA010000F0004070471F
:10AA700010B500F01AF800BF8900013E00F007B8D9
:10AA800000F009B85FEA410C5FEA1C6C08D080EA6C
:10AA9000010000F050B85FEA400C5FEA1C6CF6D190
:10AAA0004FF00040A0F5800070470EF1020E2EF02E
:10AAB000030E5EF8044B244204D44FEA4102B2F183
:10AAC0007F4F11D84FEA4003B3F17F4F0CD80ED11E
:10AAD0004FEAD07CB2F17F4F0CEB4C0C0CF1020C26
:10AAE00008BF4CEBD17C04E04FF0080C01E04FEACA
:10AAF000D17C0CEB4C0324FA03F404F00704B4F10A
:10AB0000040C06D20EEB840CBDE810404CF0010C96
:10AB10006047DFE80CF0070802024FF00040A0F5A4
:10AB2000800010BD0846420018BFD2F1807288BF75
:10AB300000F0004010BDFF2141EAD050C005704731
:10AB400051EA000C00F113801CF5000F58BFBCF552
:10AB5000000F01D48142704707D711F5000F58BF8D
:10AB600010F5000F15D481427047894270471CF5DB
:10AB7000000F04D5BCF5000FF7D5884270474FF0A1
:10AB8000807C1CEB410F38BF1CEB400F01D2884288
:10AB9000704780EA010081EA000180EA0100FFF7C6
:10ABA000F8BE80F0004090EA010F7FF504AD81F01F
:10ABB000004100F008B8000090EA010F48BF81F0A2
:10ABC00000413FF5F8AC421A04D882F00042A0EBF5
:10ABD000020011444FEAD0524FF07F4C1CEA410F63
:10ABE000A2EBD15318BF9CEA026F4AD04FF0004C41
:10ABF0004CEA00204CEA012121FA03FCB0EB0C0CDA
:10AC00000FD412F0FE0F36D05FEA4C001DD50012B3
:10AC100040EBC25038BF70471CF03F0F18BF704761
:10AC20000BE0A2F101025FEA1C2040EBC25038BFEA
:10AC300070471CF07F0F18BF7047C3F12003994085
:10AC400014BF401E20F00100704780084FEA122315
:10AC500008BF7047B0FA80FCA2EB0C02CCF1280CC4
:10AC600060FA0CF093EA122F04BF00EBC250704759
:10AC70004FEAC3707047130A5FEADC1008BF7047E1
:10AC8000F6E79CEA026F04D010EA5C0F08BF0020D0
:10AC9000704710B5FFF709FF40DFF63E81F0004036
:10ACA00070470CF00F03092B08BF082000F05980F3
:10ACB0000A2B0BD0082B18BF704708BF1CF0400FA1
:10ACC0000AD04FF000004FF0000170471CF0400F19
:10ACD00018BF4FF0004070471CF0100F08D020F054
:10ACE000704300F07F4242EAD3014FEA437070475D
:10ACF00000F0604021F07F4242EA000201F07F4014
:10AD000040EA727070474FF0FF0C4CF4E06C1CEAA4
:10AD100011531CBF9CEA030C9445C2BFDA4201EBFD
:10AD200002517047002B0DD0BCF1000F0FD0002A4C
:10AD300001F00041A4BF41F0E04141F07F614FF0DC
:10AD40000000704701F000414FF00000704750EAEA
:10AD500001334FF09B0C18BF4CF0806C7EF47CAE3E
:10AD600070471CF4801F11D01CF4E02F03D06FEA51
:10AD7000CC31490070474FF04050EFF3008222F091
:10AD8000704242EA000282F3008870474FF00000F0
:10AD900070470000000000004FBB610567ACDD3F5D
:10ADA000182D4454FB21E93F9BF681D20B73EF3FF2
:10ADB000182D4454FB21F93FE2652F227F2B7A3C6A
:10ADC000075C143326A6813CBDCBF07A8807703C23
:10ADD000075C143326A6913CC4EB98999999C9BF96
:10ADE000711623FEC671BCBF6D9A74AFF2B0B3BFCB
:10ADF0009AFDDE522DDEADBF2F6C6A2C44B4A2BF8B
:10AE00000D5555555555D53FFF8300922449C23FF6
:10AE10006E204CC5CD45B73F513DD0A0660DB13F2A
:10AE2000EB0D76244B7BA93F11DA22E33AAD903F3C
:10AE30004C5555555555A53F7751C1166CC156BF58
:10AE40009015CB19A001FA3EAD529C804F7E92BE68
:10AE5000C4B1B4BD9EEE213ED43888BEE9FAA8BD87
:10AE6000000000000000000000004054FB21F93FFA
:10AE70003163621A61B4D03D0000601A61B4D03D04
:10AE80007370032E8A19A33B0000002E8A19A33B7E
:10AE9000C14920259A837B39000000000000000092
:10AEA0006E83F9A22915444ED15727FCC0DD34F535
:10AEB000999562DB4190433CAB6351FE61C5BBDEBB
:10AEC0003A6E24B7E0D24D42EA2E49061C92D109CF
:10AED0001CEB1DFE3EA729B1F53582E88444BB2E4C
:10AEE00026709CE9417E5FB439D69139F439538399
:10AEF0008B5F849C3B28F9BDFF97F81F0F9805DEF8
:10AF00008B112FEF1F6D0A5ACF7E366DB709CB27F5
:10AF1000663F464F2DEA5F9EC7BA27757BF1E5EB8A
:10AF2000F739073DEA92528AB15FFB6B085D8D1FCE
:10AF3000A6F810111111813FD561C119A0012ABFD6
:10AF40007DFEB157E31DC73EEB9C2B8AE6E55ABE5A
:10AF50007CD5CF5A3AD9E53D2424202876696577F7
:10AF6000204772626C2073657474696E6773290D73
:10AF70000A24232028766965772023207061726176
:10AF80006D6574657273290D0A24472028766965FA
:10AF90007720706172736572207374617465290D16
:10AFA0000A2449202876696577206275696C6420D7
:10AFB000696E666F290D0A244E2028766965772010
:10AFC0007374617274757020626C6F636B73290D9A
:10AFD0000A24783D76616C7565202873617665205A
:10AFE0004772626C2073657474696E67290D0A2458
:10AFF0004E783D6C696E65202873617665207374A8
:10B00000617274757020626C6F636B290D0A244342
:10B010002028636865636B2067636F6465206D6FCC
:10B020006465290D0A245820286B696C6C20616CBA
:10B0300061726D206C6F636B290D0A2448202872A1
:10B04000756E20686F6D696E67206379636C652922
:10B050000D0A7E20286379636C65207374617274B5
:10B06000290D0A2120286665656420686F6C6429B3
:10B070000D0A3F202863757272656E7420737461C7
:10B08000747573290D0A6374726C2D7820287265AB
:10B09000736574204772626C290D0A00BCB0000809
:10B0A000000000204C0000002801000808B1000842
:10B0B0004C0000208C1400004401000800A24A0447
:10B0C0000000000000000000010203040607080958
:10B0D0000000000000000000000000000000000070
:10B0E0000000000000000000000000000000000060
:10B0F000000000000000000001020304010203043C
:08B10000060708090204060815
:04000005080000ED02
:00000001FF
